{
  "_format": "hh-sol-artifact-1",
  "contractName": "AssetGuard",
  "sourceName": "contracts/AssetGuard.sol",
  "abi": [
    {
      "inputs": [],
      "stateMutability": "nonpayable",
      "type": "constructor"
    },
    {
      "inputs": [
        {
          "internalType": "address",
          "name": "sender",
          "type": "address"
        },
        {
          "internalType": "uint256",
          "name": "tokenId",
          "type": "uint256"
        },
        {
          "internalType": "address",
          "name": "owner",
          "type": "address"
        }
      ],
      "name": "ERC721IncorrectOwner",
      "type": "error"
    },
    {
      "inputs": [
        {
          "internalType": "address",
          "name": "operator",
          "type": "address"
        },
        {
          "internalType": "uint256",
          "name": "tokenId",
          "type": "uint256"
        }
      ],
      "name": "ERC721InsufficientApproval",
      "type": "error"
    },
    {
      "inputs": [
        {
          "internalType": "address",
          "name": "approver",
          "type": "address"
        }
      ],
      "name": "ERC721InvalidApprover",
      "type": "error"
    },
    {
      "inputs": [
        {
          "internalType": "address",
          "name": "operator",
          "type": "address"
        }
      ],
      "name": "ERC721InvalidOperator",
      "type": "error"
    },
    {
      "inputs": [
        {
          "internalType": "address",
          "name": "owner",
          "type": "address"
        }
      ],
      "name": "ERC721InvalidOwner",
      "type": "error"
    },
    {
      "inputs": [
        {
          "internalType": "address",
          "name": "receiver",
          "type": "address"
        }
      ],
      "name": "ERC721InvalidReceiver",
      "type": "error"
    },
    {
      "inputs": [
        {
          "internalType": "address",
          "name": "sender",
          "type": "address"
        }
      ],
      "name": "ERC721InvalidSender",
      "type": "error"
    },
    {
      "inputs": [
        {
          "internalType": "uint256",
          "name": "tokenId",
          "type": "uint256"
        }
      ],
      "name": "ERC721NonexistentToken",
      "type": "error"
    },
    {
      "inputs": [
        {
          "internalType": "address",
          "name": "owner",
          "type": "address"
        }
      ],
      "name": "OwnableInvalidOwner",
      "type": "error"
    },
    {
      "inputs": [
        {
          "internalType": "address",
          "name": "account",
          "type": "address"
        }
      ],
      "name": "OwnableUnauthorizedAccount",
      "type": "error"
    },
    {
      "anonymous": false,
      "inputs": [
        {
          "indexed": true,
          "internalType": "address",
          "name": "owner",
          "type": "address"
        },
        {
          "indexed": true,
          "internalType": "address",
          "name": "approved",
          "type": "address"
        },
        {
          "indexed": true,
          "internalType": "uint256",
          "name": "tokenId",
          "type": "uint256"
        }
      ],
      "name": "Approval",
      "type": "event"
    },
    {
      "anonymous": false,
      "inputs": [
        {
          "indexed": true,
          "internalType": "address",
          "name": "owner",
          "type": "address"
        },
        {
          "indexed": true,
          "internalType": "address",
          "name": "operator",
          "type": "address"
        },
        {
          "indexed": false,
          "internalType": "bool",
          "name": "approved",
          "type": "bool"
        }
      ],
      "name": "ApprovalForAll",
      "type": "event"
    },
    {
      "anonymous": false,
      "inputs": [
        {
          "indexed": false,
          "internalType": "uint256",
          "name": "_fromTokenId",
          "type": "uint256"
        },
        {
          "indexed": false,
          "internalType": "uint256",
          "name": "_toTokenId",
          "type": "uint256"
        }
      ],
      "name": "BatchMetadataUpdate",
      "type": "event"
    },
    {
      "anonymous": false,
      "inputs": [
        {
          "indexed": true,
          "internalType": "uint256",
          "name": "tokenId",
          "type": "uint256"
        },
        {
          "indexed": false,
          "internalType": "enum AssetGuard.Status",
          "name": "status",
          "type": "uint8"
        }
      ],
      "name": "ItemReported",
      "type": "event"
    },
    {
      "anonymous": false,
      "inputs": [
        {
          "indexed": false,
          "internalType": "uint256",
          "name": "_tokenId",
          "type": "uint256"
        }
      ],
      "name": "MetadataUpdate",
      "type": "event"
    },
    {
      "anonymous": false,
      "inputs": [
        {
          "indexed": true,
          "internalType": "address",
          "name": "previousOwner",
          "type": "address"
        },
        {
          "indexed": true,
          "internalType": "address",
          "name": "newOwner",
          "type": "address"
        }
      ],
      "name": "OwnershipTransferred",
      "type": "event"
    },
    {
      "anonymous": false,
      "inputs": [
        {
          "indexed": true,
          "internalType": "address",
          "name": "from",
          "type": "address"
        },
        {
          "indexed": true,
          "internalType": "address",
          "name": "to",
          "type": "address"
        },
        {
          "indexed": true,
          "internalType": "uint256",
          "name": "tokenId",
          "type": "uint256"
        }
      ],
      "name": "Transfer",
      "type": "event"
    },
    {
      "inputs": [
        {
          "internalType": "address",
          "name": "relayer",
          "type": "address"
        }
      ],
      "name": "addRelayer",
      "outputs": [],
      "stateMutability": "nonpayable",
      "type": "function"
    },
    {
      "inputs": [
        {
          "internalType": "address",
          "name": "to",
          "type": "address"
        },
        {
          "internalType": "uint256",
          "name": "tokenId",
          "type": "uint256"
        }
      ],
      "name": "approve",
      "outputs": [],
      "stateMutability": "nonpayable",
      "type": "function"
    },
    {
      "inputs": [
        {
          "internalType": "address",
          "name": "",
          "type": "address"
        }
      ],
      "name": "approvedRelayers",
      "outputs": [
        {
          "internalType": "bool",
          "name": "",
          "type": "bool"
        }
      ],
      "stateMutability": "view",
      "type": "function"
    },
    {
      "inputs": [
        {
          "internalType": "address",
          "name": "owner",
          "type": "address"
        }
      ],
      "name": "balanceOf",
      "outputs": [
        {
          "internalType": "uint256",
          "name": "",
          "type": "uint256"
        }
      ],
      "stateMutability": "view",
      "type": "function"
    },
    {
      "inputs": [
        {
          "internalType": "uint256",
          "name": "tokenId",
          "type": "uint256"
        }
      ],
      "name": "getApproved",
      "outputs": [
        {
          "internalType": "address",
          "name": "",
          "type": "address"
        }
      ],
      "stateMutability": "view",
      "type": "function"
    },
    {
      "inputs": [
        {
          "internalType": "address",
          "name": "owner",
          "type": "address"
        },
        {
          "internalType": "address",
          "name": "operator",
          "type": "address"
        }
      ],
      "name": "isApprovedForAll",
      "outputs": [
        {
          "internalType": "bool",
          "name": "",
          "type": "bool"
        }
      ],
      "stateMutability": "view",
      "type": "function"
    },
    {
      "inputs": [
        {
          "internalType": "uint256",
          "name": "",
          "type": "uint256"
        }
      ],
      "name": "items",
      "outputs": [
        {
          "internalType": "string",
          "name": "serialNumber",
          "type": "string"
        },
        {
          "internalType": "enum AssetGuard.Status",
          "name": "status",
          "type": "uint8"
        },
        {
          "internalType": "uint256",
          "name": "reportDate",
          "type": "uint256"
        },
        {
          "internalType": "bool",
          "name": "isMinted",
          "type": "bool"
        }
      ],
      "stateMutability": "view",
      "type": "function"
    },
    {
      "inputs": [
        {
          "internalType": "address",
          "name": "to",
          "type": "address"
        },
        {
          "internalType": "string",
          "name": "serial",
          "type": "string"
        },
        {
          "internalType": "string",
          "name": "uri",
          "type": "string"
        }
      ],
      "name": "manufacturerMint",
      "outputs": [],
      "stateMutability": "nonpayable",
      "type": "function"
    },
    {
      "inputs": [],
      "name": "name",
      "outputs": [
        {
          "internalType": "string",
          "name": "",
          "type": "string"
        }
      ],
      "stateMutability": "view",
      "type": "function"
    },
    {
      "inputs": [],
      "name": "owner",
      "outputs": [
        {
          "internalType": "address",
          "name": "",
          "type": "address"
        }
      ],
      "stateMutability": "view",
      "type": "function"
    },
    {
      "inputs": [
        {
          "internalType": "uint256",
          "name": "tokenId",
          "type": "uint256"
        }
      ],
      "name": "ownerOf",
      "outputs": [
        {
          "internalType": "address",
          "name": "",
          "type": "address"
        }
      ],
      "stateMutability": "view",
      "type": "function"
    },
    {
      "inputs": [],
      "name": "renounceOwnership",
      "outputs": [],
      "stateMutability": "nonpayable",
      "type": "function"
    },
    {
      "inputs": [
        {
          "internalType": "uint256",
          "name": "tokenId",
          "type": "uint256"
        }
      ],
      "name": "reportRecovered",
      "outputs": [],
      "stateMutability": "nonpayable",
      "type": "function"
    },
    {
      "inputs": [
        {
          "internalType": "uint256",
          "name": "tokenId",
          "type": "uint256"
        }
      ],
      "name": "reportStolen",
      "outputs": [],
      "stateMutability": "nonpayable",
      "type": "function"
    },
    {
      "inputs": [
        {
          "internalType": "address",
          "name": "from",
          "type": "address"
        },
        {
          "internalType": "address",
          "name": "to",
          "type": "address"
        },
        {
          "internalType": "uint256",
          "name": "tokenId",
          "type": "uint256"
        }
      ],
      "name": "safeTransferFrom",
      "outputs": [],
      "stateMutability": "nonpayable",
      "type": "function"
    },
    {
      "inputs": [
        {
          "internalType": "address",
          "name": "from",
          "type": "address"
        },
        {
          "internalType": "address",
          "name": "to",
          "type": "address"
        },
        {
          "internalType": "uint256",
          "name": "tokenId",
          "type": "uint256"
        },
        {
          "internalType": "bytes",
          "name": "data",
          "type": "bytes"
        }
      ],
      "name": "safeTransferFrom",
      "outputs": [],
      "stateMutability": "nonpayable",
      "type": "function"
    },
    {
      "inputs": [
        {
          "internalType": "string",
          "name": "",
          "type": "string"
        }
      ],
      "name": "serialExists",
      "outputs": [
        {
          "internalType": "bool",
          "name": "",
          "type": "bool"
        }
      ],
      "stateMutability": "view",
      "type": "function"
    },
    {
      "inputs": [
        {
          "internalType": "string",
          "name": "",
          "type": "string"
        }
      ],
      "name": "serialToTokenId",
      "outputs": [
        {
          "internalType": "uint256",
          "name": "",
          "type": "uint256"
        }
      ],
      "stateMutability": "view",
      "type": "function"
    },
    {
      "inputs": [
        {
          "internalType": "address",
          "name": "operator",
          "type": "address"
        },
        {
          "internalType": "bool",
          "name": "approved",
          "type": "bool"
        }
      ],
      "name": "setApprovalForAll",
      "outputs": [],
      "stateMutability": "nonpayable",
      "type": "function"
    },
    {
      "inputs": [
        {
          "internalType": "bytes4",
          "name": "interfaceId",
          "type": "bytes4"
        }
      ],
      "name": "supportsInterface",
      "outputs": [
        {
          "internalType": "bool",
          "name": "",
          "type": "bool"
        }
      ],
      "stateMutability": "view",
      "type": "function"
    },
    {
      "inputs": [],
      "name": "symbol",
      "outputs": [
        {
          "internalType": "string",
          "name": "",
          "type": "string"
        }
      ],
      "stateMutability": "view",
      "type": "function"
    },
    {
      "inputs": [
        {
          "internalType": "uint256",
          "name": "tokenId",
          "type": "uint256"
        }
      ],
      "name": "tokenURI",
      "outputs": [
        {
          "internalType": "string",
          "name": "",
          "type": "string"
        }
      ],
      "stateMutability": "view",
      "type": "function"
    },
    {
      "inputs": [
        {
          "internalType": "address",
          "name": "to",
          "type": "address"
        },
        {
          "internalType": "uint256",
          "name": "tokenId",
          "type": "uint256"
        }
      ],
      "name": "transferAsset",
      "outputs": [],
      "stateMutability": "nonpayable",
      "type": "function"
    },
    {
      "inputs": [
        {
          "internalType": "address",
          "name": "from",
          "type": "address"
        },
        {
          "internalType": "address",
          "name": "to",
          "type": "address"
        },
        {
          "internalType": "uint256",
          "name": "tokenId",
          "type": "uint256"
        }
      ],
      "name": "transferFrom",
      "outputs": [],
      "stateMutability": "nonpayable",
      "type": "function"
    },
    {
      "inputs": [
        {
          "internalType": "address",
          "name": "newOwner",
          "type": "address"
        }
      ],
      "name": "transferOwnership",
      "outputs": [],
      "stateMutability": "nonpayable",
      "type": "function"
    }
  ],
  "bytecode": "0x60806040523480156200001157600080fd5b50336040518060400160405280600a81526020017f41737365744775617264000000000000000000000000000000000000000000008152506040518060400160405280600381526020017f4147440000000000000000000000000000000000000000000000000000000000815250816000908162000090919062000472565b508060019081620000a2919062000472565b505050600073ffffffffffffffffffffffffffffffffffffffff168173ffffffffffffffffffffffffffffffffffffffff16036200011a5760006040517f1e4fbdf70000000000000000000000000000000000000000000000000000000081526004016200011191906200059e565b60405180910390fd5b6200012b816200013260201b60201c565b50620005bb565b6000600760009054906101000a900473ffffffffffffffffffffffffffffffffffffffff16905081600760006101000a81548173ffffffffffffffffffffffffffffffffffffffff021916908373ffffffffffffffffffffffffffffffffffffffff1602179055508173ffffffffffffffffffffffffffffffffffffffff168173ffffffffffffffffffffffffffffffffffffffff167f8be0079c531659141344cd1fd0a4f28419497f9722a3daafe3b4186f6b6457e060405160405180910390a35050565b600081519050919050565b7f4e487b7100000000000000000000000000000000000000000000000000000000600052604160045260246000fd5b7f4e487b7100000000000000000000000000000000000000000000000000000000600052602260045260246000fd5b600060028204905060018216806200027a57607f821691505b60208210810362000290576200028f62000232565b5b50919050565b60008190508160005260206000209050919050565b60006020601f8301049050919050565b600082821b905092915050565b600060088302620002fa7fffffffffffffffffffffffffffffffffffffffffffffffffffffffffffffffff82620002bb565b620003068683620002bb565b95508019841693508086168417925050509392505050565b6000819050919050565b6000819050919050565b6000620003536200034d62000347846200031e565b62000328565b6200031e565b9050919050565b6000819050919050565b6200036f8362000332565b620003876200037e826200035a565b848454620002c8565b825550505050565b600090565b6200039e6200038f565b620003ab81848462000364565b505050565b5b81811015620003d357620003c760008262000394565b600181019050620003b1565b5050565b601f8211156200042257620003ec8162000296565b620003f784620002ab565b8101602085101562000407578190505b6200041f6200041685620002ab565b830182620003b0565b50505b505050565b600082821c905092915050565b6000620004476000198460080262000427565b1980831691505092915050565b600062000462838362000434565b9150826002028217905092915050565b6200047d82620001f8565b67ffffffffffffffff81111562000499576200049862000203565b5b620004a5825462000261565b620004b2828285620003d7565b600060209050601f831160018114620004ea5760008415620004d5578287015190505b620004e1858262000454565b86555062000551565b601f198416620004fa8662000296565b60005b828110156200052457848901518255600182019150602085019450602081019050620004fd565b8683101562000544578489015162000540601f89168262000434565b8355505b6001600288020188555050505b505050505050565b600073ffffffffffffffffffffffffffffffffffffffff82169050919050565b6000620005868262000559565b9050919050565b620005988162000579565b82525050565b6000602082019050620005b560008301846200058d565b92915050565b6138ed80620005cb6000396000f3fe608060405234801561001057600080fd5b50600436106101735760003560e01c806370a08231116100de578063a22cb46511610097578063c87b56dd11610071578063c87b56dd1461045b578063dd39f00d1461048b578063e985e9c5146104a7578063f2fde38b146104d757610173565b8063a22cb465146103f0578063b88d4fde1461040c578063bfb231d21461042857610173565b806370a082311461031a578063715018a61461034a5780638cba8b6a146103545780638da5cb5b146103845780638ea090af146103a257806395d89b41146103d257610173565b806323b872dd1161013057806323b872dd1461024a578063389a032a1461026657806342842e0e14610282578063591636351461029e5780635c921eb9146102ce5780636352211e146102ea57610173565b806301ffc9a71461017857806302ea1441146101a857806306fdde03146101c4578063081812fc146101e2578063095ea7b3146102125780631b41aab31461022e575b600080fd5b610192600480360381019061018d91906127e0565b6104f3565b60405161019f9190612828565b60405180910390f35b6101c260048036038101906101bd9190612879565b610505565b005b6101cc61073e565b6040516101d99190612936565b60405180910390f35b6101fc60048036038101906101f79190612879565b6107d0565b6040516102099190612999565b60405180910390f35b61022c600480360381019061022791906129e0565b6107ec565b005b61024860048036038101906102439190612b55565b610802565b005b610264600480360381019061025f9190612be0565b6109c3565b005b610280600480360381019061027b9190612879565b610ac5565b005b61029c60048036038101906102979190612be0565b610c8f565b005b6102b860048036038101906102b39190612c33565b610caf565b6040516102c59190612c8b565b60405180910390f35b6102e860048036038101906102e391906129e0565b610cdd565b005b61030460048036038101906102ff9190612879565b610eb2565b6040516103119190612999565b60405180910390f35b610334600480360381019061032f9190612ca6565b610ec4565b6040516103419190612c8b565b60405180910390f35b610352610f7e565b005b61036e60048036038101906103699190612ca6565b610f92565b60405161037b9190612828565b60405180910390f35b61038c610fb2565b6040516103999190612999565b60405180910390f35b6103bc60048036038101906103b79190612c33565b610fdc565b6040516103c99190612828565b60405180910390f35b6103da611012565b6040516103e79190612936565b60405180910390f35b61040a60048036038101906104059190612cff565b6110a4565b005b61042660048036038101906104219190612de0565b6110ba565b005b610442600480360381019061043d9190612879565b6110df565b6040516104529493929190612eda565b60405180910390f35b61047560048036038101906104709190612879565b6111b1565b6040516104829190612936565b60405180910390f35b6104a560048036038101906104a09190612ca6565b6111c3565b005b6104c160048036038101906104bc9190612f26565b611226565b6040516104ce9190612828565b60405180910390f35b6104f160048036038101906104ec9190612ca6565b6112ba565b005b60006104fe82611340565b9050919050565b600115156009600083815260200190815260200160002060030160009054906101000a900460ff1615151461056f576040517f08c379a000000000000000000000000000000000000000000000000000000000815260040161056690612fd8565b60405180910390fd5b61057881610eb2565b73ffffffffffffffffffffffffffffffffffffffff163373ffffffffffffffffffffffffffffffffffffffff1614806105fa5750600c60003373ffffffffffffffffffffffffffffffffffffffff1673ffffffffffffffffffffffffffffffffffffffff16815260200190815260200160002060009054906101000a900460ff165b610639576040517f08c379a000000000000000000000000000000000000000000000000000000000815260040161063090613044565b60405180910390fd5b6001600281111561064d5761064c612e63565b5b6009600083815260200190815260200160002060010160009054906101000a900460ff16600281111561068357610682612e63565b5b146106c3576040517f08c379a00000000000000000000000000000000000000000000000000000000081526004016106ba906130b0565b60405180910390fd5b60026009600083815260200190815260200160002060010160006101000a81548160ff021916908360028111156106fd576106fc612e63565b5b0217905550807f8a72e066c04aefe8f8a48306449441156991f023f739df3987292ed4f9974168600260405161073391906130d0565b60405180910390a250565b60606000805461074d9061311a565b80601f01602080910402602001604051908101604052809291908181526020018280546107799061311a565b80156107c65780601f1061079b576101008083540402835291602001916107c6565b820191906000526020600020905b8154815290600101906020018083116107a957829003601f168201915b5050505050905090565b60006107db826113a1565b506107e582611429565b9050919050565b6107fe82826107f9611466565b61146e565b5050565b61080a611480565b600b8260405161081a9190613187565b908152602001604051809103902060009054906101000a900460ff1615610876576040517f08c379a000000000000000000000000000000000000000000000000000000000815260040161086d90613210565b60405180910390fd5b60006008600081548092919061088b9061325f565b91905055905061089b8482611507565b6108a58183611525565b6040518060800160405280848152602001600060028111156108ca576108c9612e63565b5b815260200160008152602001600115158152506009600083815260200190815260200160002060008201518160000190816109059190613453565b5060208201518160010160006101000a81548160ff0219169083600281111561093157610930612e63565b5b02179055506040820151816002015560608201518160030160006101000a81548160ff02191690831515021790555090505080600a846040516109749190613187565b9081526020016040518091039020819055506001600b846040516109989190613187565b908152602001604051809103902060006101000a81548160ff02191690831515021790555050505050565b600073ffffffffffffffffffffffffffffffffffffffff168273ffffffffffffffffffffffffffffffffffffffff1603610a355760006040517f64a0ae92000000000000000000000000000000000000000000000000000000008152600401610a2c9190612999565b60405180910390fd5b6000610a498383610a44611466565b611581565b90508373ffffffffffffffffffffffffffffffffffffffff168173ffffffffffffffffffffffffffffffffffffffff1614610abf578382826040517f64283d7b000000000000000000000000000000000000000000000000000000008152600401610ab693929190613525565b60405180910390fd5b50505050565b600115156009600083815260200190815260200160002060030160009054906101000a900460ff16151514610b2f576040517f08c379a0000000000000000000000000000000000000000000000000000000008152600401610b2690612fd8565b60405180910390fd5b610b3881610eb2565b73ffffffffffffffffffffffffffffffffffffffff163373ffffffffffffffffffffffffffffffffffffffff161480610bba5750600c60003373ffffffffffffffffffffffffffffffffffffffff1673ffffffffffffffffffffffffffffffffffffffff16815260200190815260200160002060009054906101000a900460ff165b610bf9576040517f08c379a0000000000000000000000000000000000000000000000000000000008152600401610bf090613044565b60405180910390fd5b60016009600083815260200190815260200160002060010160006101000a81548160ff02191690836002811115610c3357610c32612e63565b5b0217905550426009600083815260200190815260200160002060020181905550807f8a72e066c04aefe8f8a48306449441156991f023f739df3987292ed4f99741686001604051610c8491906130d0565b60405180910390a250565b610caa838383604051806020016040528060008152506110ba565b505050565b600a818051602081018201805184825260208301602085012081835280955050505050506000915090505481565b600115156009600083815260200190815260200160002060030160009054906101000a900460ff16151514610d47576040517f08c379a0000000000000000000000000000000000000000000000000000000008152600401610d3e906135a8565b60405180910390fd5b60016002811115610d5b57610d5a612e63565b5b6009600083815260200190815260200160002060010160009054906101000a900460ff166002811115610d9157610d90612e63565b5b03610dd1576040517f08c379a0000000000000000000000000000000000000000000000000000000008152600401610dc89061363a565b60405180910390fd5b610dda81610eb2565b73ffffffffffffffffffffffffffffffffffffffff163373ffffffffffffffffffffffffffffffffffffffff161480610e5c5750600c60003373ffffffffffffffffffffffffffffffffffffffff1673ffffffffffffffffffffffffffffffffffffffff16815260200190815260200160002060009054906101000a900460ff165b610e9b576040517f08c379a0000000000000000000000000000000000000000000000000000000008152600401610e92906136a6565b60405180910390fd5b610eae610ea782610eb2565b8383611663565b5050565b6000610ebd826113a1565b9050919050565b60008073ffffffffffffffffffffffffffffffffffffffff168273ffffffffffffffffffffffffffffffffffffffff1603610f375760006040517f89c62b64000000000000000000000000000000000000000000000000000000008152600401610f2e9190612999565b60405180910390fd5b600360008373ffffffffffffffffffffffffffffffffffffffff1673ffffffffffffffffffffffffffffffffffffffff168152602001908152602001600020549050919050565b610f86611480565b610f9060006117d0565b565b600c6020528060005260406000206000915054906101000a900460ff1681565b6000600760009054906101000a900473ffffffffffffffffffffffffffffffffffffffff16905090565b600b818051602081018201805184825260208301602085012081835280955050505050506000915054906101000a900460ff1681565b6060600180546110219061311a565b80601f016020809104026020016040519081016040528092919081815260200182805461104d9061311a565b801561109a5780601f1061106f5761010080835404028352916020019161109a565b820191906000526020600020905b81548152906001019060200180831161107d57829003601f168201915b5050505050905090565b6110b66110af611466565b8383611896565b5050565b6110c58484846109c3565b6110d96110d0611466565b85858585611a05565b50505050565b60096020528060005260406000206000915090508060000180546111029061311a565b80601f016020809104026020016040519081016040528092919081815260200182805461112e9061311a565b801561117b5780601f106111505761010080835404028352916020019161117b565b820191906000526020600020905b81548152906001019060200180831161115e57829003601f168201915b5050505050908060010160009054906101000a900460ff16908060020154908060030160009054906101000a900460ff16905084565b60606111bc82611bb6565b9050919050565b6111cb611480565b6001600c60008373ffffffffffffffffffffffffffffffffffffffff1673ffffffffffffffffffffffffffffffffffffffff16815260200190815260200160002060006101000a81548160ff02191690831515021790555050565b6000600560008473ffffffffffffffffffffffffffffffffffffffff1673ffffffffffffffffffffffffffffffffffffffff16815260200190815260200160002060008373ffffffffffffffffffffffffffffffffffffffff1673ffffffffffffffffffffffffffffffffffffffff16815260200190815260200160002060009054906101000a900460ff16905092915050565b6112c2611480565b600073ffffffffffffffffffffffffffffffffffffffff168173ffffffffffffffffffffffffffffffffffffffff16036113345760006040517f1e4fbdf700000000000000000000000000000000000000000000000000000000815260040161132b9190612999565b60405180910390fd5b61133d816117d0565b50565b6000634906490660e01b7bffffffffffffffffffffffffffffffffffffffffffffffffffffffff1916827bffffffffffffffffffffffffffffffffffffffffffffffffffffffff1916148061139a575061139982611cc9565b5b9050919050565b6000806113ad83611dab565b9050600073ffffffffffffffffffffffffffffffffffffffff168173ffffffffffffffffffffffffffffffffffffffff160361142057826040517f7e2732890000000000000000000000000000000000000000000000000000000081526004016114179190612c8b565b60405180910390fd5b80915050919050565b60006004600083815260200190815260200160002060009054906101000a900473ffffffffffffffffffffffffffffffffffffffff169050919050565b600033905090565b61147b8383836001611de8565b505050565b611488611466565b73ffffffffffffffffffffffffffffffffffffffff166114a6610fb2565b73ffffffffffffffffffffffffffffffffffffffff1614611505576114c9611466565b6040517f118cdaa70000000000000000000000000000000000000000000000000000000081526004016114fc9190612999565b60405180910390fd5b565b611521828260405180602001604052806000815250611fad565b5050565b806006600084815260200190815260200160002090816115459190613453565b507ff8e1a15aba9398e019f0b49df1a4fde98ee17ae345cb5f6b5e2c27f5033e8ce7826040516115759190612c8b565b60405180910390a15050565b60008061158d84611dab565b9050600073ffffffffffffffffffffffffffffffffffffffff168173ffffffffffffffffffffffffffffffffffffffff161461164e57600160028111156115d7576115d6612e63565b5b6009600086815260200190815260200160002060010160009054906101000a900460ff16600281111561160d5761160c612e63565b5b0361164d576040517f08c379a000000000000000000000000000000000000000000000000000000000815260040161164490613738565b60405180910390fd5b5b611659858585611fd1565b9150509392505050565b600073ffffffffffffffffffffffffffffffffffffffff168273ffffffffffffffffffffffffffffffffffffffff16036116d55760006040517f64a0ae920000000000000000000000000000000000000000000000000000000081526004016116cc9190612999565b60405180910390fd5b60006116e383836000611581565b9050600073ffffffffffffffffffffffffffffffffffffffff168173ffffffffffffffffffffffffffffffffffffffff160361175657816040517f7e27328900000000000000000000000000000000000000000000000000000000815260040161174d9190612c8b565b60405180910390fd5b8373ffffffffffffffffffffffffffffffffffffffff168173ffffffffffffffffffffffffffffffffffffffff16146117ca578382826040517f64283d7b0000000000000000000000000000000000000000000000000000000081526004016117c193929190613525565b60405180910390fd5b50505050565b6000600760009054906101000a900473ffffffffffffffffffffffffffffffffffffffff16905081600760006101000a81548173ffffffffffffffffffffffffffffffffffffffff021916908373ffffffffffffffffffffffffffffffffffffffff1602179055508173ffffffffffffffffffffffffffffffffffffffff168173ffffffffffffffffffffffffffffffffffffffff167f8be0079c531659141344cd1fd0a4f28419497f9722a3daafe3b4186f6b6457e060405160405180910390a35050565b600073ffffffffffffffffffffffffffffffffffffffff168273ffffffffffffffffffffffffffffffffffffffff160361190757816040517f5b08ba180000000000000000000000000000000000000000000000000000000081526004016118fe9190612999565b60405180910390fd5b80600560008573ffffffffffffffffffffffffffffffffffffffff1673ffffffffffffffffffffffffffffffffffffffff16815260200190815260200160002060008473ffffffffffffffffffffffffffffffffffffffff1673ffffffffffffffffffffffffffffffffffffffff16815260200190815260200160002060006101000a81548160ff0219169083151502179055508173ffffffffffffffffffffffffffffffffffffffff168373ffffffffffffffffffffffffffffffffffffffff167f17307eab39ab6107e8899845ad3d59bd9653f200f220920489ca2b5937696c31836040516119f89190612828565b60405180910390a3505050565b60008373ffffffffffffffffffffffffffffffffffffffff163b1115611baf578273ffffffffffffffffffffffffffffffffffffffff1663150b7a02868685856040518563ffffffff1660e01b8152600401611a6494939291906137ad565b6020604051808303816000875af1925050508015611aa057506040513d601f19601f82011682018060405250810190611a9d919061380e565b60015b611b24573d8060008114611ad0576040519150601f19603f3d011682016040523d82523d6000602084013e611ad5565b606091505b506000815103611b1c57836040517f64a0ae92000000000000000000000000000000000000000000000000000000008152600401611b139190612999565b60405180910390fd5b805160208201fd5b63150b7a0260e01b7bffffffffffffffffffffffffffffffffffffffffffffffffffffffff1916817bffffffffffffffffffffffffffffffffffffffffffffffffffffffff191614611bad57836040517f64a0ae92000000000000000000000000000000000000000000000000000000008152600401611ba49190612999565b60405180910390fd5b505b5050505050565b6060611bc1826113a1565b506000600660008481526020019081526020016000208054611be29061311a565b80601f0160208091040260200160405190810160405280929190818152602001828054611c0e9061311a565b8015611c5b5780601f10611c3057610100808354040283529160200191611c5b565b820191906000526020600020905b815481529060010190602001808311611c3e57829003601f168201915b505050505090506000611c6c6121eb565b90506000815103611c81578192505050611cc4565b600082511115611cb6578082604051602001611c9e92919061383b565b60405160208183030381529060405292505050611cc4565b611cbf84612202565b925050505b919050565b60007f80ac58cd000000000000000000000000000000000000000000000000000000007bffffffffffffffffffffffffffffffffffffffffffffffffffffffff1916827bffffffffffffffffffffffffffffffffffffffffffffffffffffffff19161480611d9457507f5b5e139f000000000000000000000000000000000000000000000000000000007bffffffffffffffffffffffffffffffffffffffffffffffffffffffff1916827bffffffffffffffffffffffffffffffffffffffffffffffffffffffff1916145b80611da45750611da38261226b565b5b9050919050565b60006002600083815260200190815260200160002060009054906101000a900473ffffffffffffffffffffffffffffffffffffffff169050919050565b8080611e215750600073ffffffffffffffffffffffffffffffffffffffff168273ffffffffffffffffffffffffffffffffffffffff1614155b15611f55576000611e31846113a1565b9050600073ffffffffffffffffffffffffffffffffffffffff168373ffffffffffffffffffffffffffffffffffffffff1614158015611e9c57508273ffffffffffffffffffffffffffffffffffffffff168173ffffffffffffffffffffffffffffffffffffffff1614155b8015611eaf5750611ead8184611226565b155b15611ef157826040517fa9fbf51f000000000000000000000000000000000000000000000000000000008152600401611ee89190612999565b60405180910390fd5b8115611f5357838573ffffffffffffffffffffffffffffffffffffffff168273ffffffffffffffffffffffffffffffffffffffff167f8c5be1e5ebec7d5bd14f71427d1e84f3dd0314c0f7b2291e5b200ac8c7c3b92560405160405180910390a45b505b836004600085815260200190815260200160002060006101000a81548173ffffffffffffffffffffffffffffffffffffffff021916908373ffffffffffffffffffffffffffffffffffffffff16021790555050505050565b611fb783836122d5565b611fcc611fc2611466565b6000858585611a05565b505050565b600080611fdd84611dab565b9050600073ffffffffffffffffffffffffffffffffffffffff168373ffffffffffffffffffffffffffffffffffffffff161461201f5761201e8184866123ce565b5b600073ffffffffffffffffffffffffffffffffffffffff168173ffffffffffffffffffffffffffffffffffffffff16146120b057612061600085600080611de8565b6001600360008373ffffffffffffffffffffffffffffffffffffffff1673ffffffffffffffffffffffffffffffffffffffff168152602001908152602001600020600082825403925050819055505b600073ffffffffffffffffffffffffffffffffffffffff168573ffffffffffffffffffffffffffffffffffffffff1614612133576001600360008773ffffffffffffffffffffffffffffffffffffffff1673ffffffffffffffffffffffffffffffffffffffff168152602001908152602001600020600082825401925050819055505b846002600086815260200190815260200160002060006101000a81548173ffffffffffffffffffffffffffffffffffffffff021916908373ffffffffffffffffffffffffffffffffffffffff160217905550838573ffffffffffffffffffffffffffffffffffffffff168273ffffffffffffffffffffffffffffffffffffffff167fddf252ad1be2c89b69c2b068fc378daa952ba7f163c4a11628f55a4df523b3ef60405160405180910390a4809150509392505050565b606060405180602001604052806000815250905090565b606061220d826113a1565b5060006122186121eb565b905060008151116122385760405180602001604052806000815250612263565b8061224284612492565b60405160200161225392919061383b565b6040516020818303038152906040525b915050919050565b60007f01ffc9a7000000000000000000000000000000000000000000000000000000007bffffffffffffffffffffffffffffffffffffffffffffffffffffffff1916827bffffffffffffffffffffffffffffffffffffffffffffffffffffffff1916149050919050565b600073ffffffffffffffffffffffffffffffffffffffff168273ffffffffffffffffffffffffffffffffffffffff16036123475760006040517f64a0ae9200000000000000000000000000000000000000000000000000000000815260040161233e9190612999565b60405180910390fd5b600061235583836000611581565b9050600073ffffffffffffffffffffffffffffffffffffffff168173ffffffffffffffffffffffffffffffffffffffff16146123c95760006040517f73c6ac6e0000000000000000000000000000000000000000000000000000000081526004016123c09190612999565b60405180910390fd5b505050565b6123d9838383612560565b61248d57600073ffffffffffffffffffffffffffffffffffffffff168373ffffffffffffffffffffffffffffffffffffffff160361244e57806040517f7e2732890000000000000000000000000000000000000000000000000000000081526004016124459190612c8b565b60405180910390fd5b81816040517f177e802f00000000000000000000000000000000000000000000000000000000815260040161248492919061385f565b60405180910390fd5b505050565b6060600060016124a184612621565b01905060008167ffffffffffffffff8111156124c0576124bf612a2a565b5b6040519080825280601f01601f1916602001820160405280156124f25781602001600182028036833780820191505090505b509050600082602083010190505b600115612555578080600190039150507f3031323334353637383961626364656600000000000000000000000000000000600a86061a8153600a858161254957612548613888565b5b04945060008503612500575b819350505050919050565b60008073ffffffffffffffffffffffffffffffffffffffff168373ffffffffffffffffffffffffffffffffffffffff161415801561261857508273ffffffffffffffffffffffffffffffffffffffff168473ffffffffffffffffffffffffffffffffffffffff1614806125d957506125d88484611226565b5b8061261757508273ffffffffffffffffffffffffffffffffffffffff166125ff83611429565b73ffffffffffffffffffffffffffffffffffffffff16145b5b90509392505050565b600080600090507a184f03e93ff9f4daa797ed6e38ed64bf6a1f010000000000000000831061267f577a184f03e93ff9f4daa797ed6e38ed64bf6a1f010000000000000000838161267557612674613888565b5b0492506040810190505b6d04ee2d6d415b85acef810000000083106126bc576d04ee2d6d415b85acef810000000083816126b2576126b1613888565b5b0492506020810190505b662386f26fc1000083106126eb57662386f26fc1000083816126e1576126e0613888565b5b0492506010810190505b6305f5e1008310612714576305f5e100838161270a57612709613888565b5b0492506008810190505b612710831061273957612710838161272f5761272e613888565b5b0492506004810190505b6064831061275c576064838161275257612751613888565b5b0492506002810190505b600a831061276b576001810190505b80915050919050565b6000604051905090565b600080fd5b600080fd5b60007fffffffff0000000000000000000000000000000000000000000000000000000082169050919050565b6127bd81612788565b81146127c857600080fd5b50565b6000813590506127da816127b4565b92915050565b6000602082840312156127f6576127f561277e565b5b6000612804848285016127cb565b91505092915050565b60008115159050919050565b6128228161280d565b82525050565b600060208201905061283d6000830184612819565b92915050565b6000819050919050565b61285681612843565b811461286157600080fd5b50565b6000813590506128738161284d565b92915050565b60006020828403121561288f5761288e61277e565b5b600061289d84828501612864565b91505092915050565b600081519050919050565b600082825260208201905092915050565b60005b838110156128e05780820151818401526020810190506128c5565b60008484015250505050565b6000601f19601f8301169050919050565b6000612908826128a6565b61291281856128b1565b93506129228185602086016128c2565b61292b816128ec565b840191505092915050565b6000602082019050818103600083015261295081846128fd565b905092915050565b600073ffffffffffffffffffffffffffffffffffffffff82169050919050565b600061298382612958565b9050919050565b61299381612978565b82525050565b60006020820190506129ae600083018461298a565b92915050565b6129bd81612978565b81146129c857600080fd5b50565b6000813590506129da816129b4565b92915050565b600080604083850312156129f7576129f661277e565b5b6000612a05858286016129cb565b9250506020612a1685828601612864565b9150509250929050565b600080fd5b600080fd5b7f4e487b7100000000000000000000000000000000000000000000000000000000600052604160045260246000fd5b612a62826128ec565b810181811067ffffffffffffffff82111715612a8157612a80612a2a565b5b80604052505050565b6000612a94612774565b9050612aa08282612a59565b919050565b600067ffffffffffffffff821115612ac057612abf612a2a565b5b612ac9826128ec565b9050602081019050919050565b82818337600083830152505050565b6000612af8612af384612aa5565b612a8a565b905082815260208101848484011115612b1457612b13612a25565b5b612b1f848285612ad6565b509392505050565b600082601f830112612b3c57612b3b612a20565b5b8135612b4c848260208601612ae5565b91505092915050565b600080600060608486031215612b6e57612b6d61277e565b5b6000612b7c868287016129cb565b935050602084013567ffffffffffffffff811115612b9d57612b9c612783565b5b612ba986828701612b27565b925050604084013567ffffffffffffffff811115612bca57612bc9612783565b5b612bd686828701612b27565b9150509250925092565b600080600060608486031215612bf957612bf861277e565b5b6000612c07868287016129cb565b9350506020612c18868287016129cb565b9250506040612c2986828701612864565b9150509250925092565b600060208284031215612c4957612c4861277e565b5b600082013567ffffffffffffffff811115612c6757612c66612783565b5b612c7384828501612b27565b91505092915050565b612c8581612843565b82525050565b6000602082019050612ca06000830184612c7c565b92915050565b600060208284031215612cbc57612cbb61277e565b5b6000612cca848285016129cb565b91505092915050565b612cdc8161280d565b8114612ce757600080fd5b50565b600081359050612cf981612cd3565b92915050565b60008060408385031215612d1657612d1561277e565b5b6000612d24858286016129cb565b9250506020612d3585828601612cea565b9150509250929050565b600067ffffffffffffffff821115612d5a57612d59612a2a565b5b612d63826128ec565b9050602081019050919050565b6000612d83612d7e84612d3f565b612a8a565b905082815260208101848484011115612d9f57612d9e612a25565b5b612daa848285612ad6565b509392505050565b600082601f830112612dc757612dc6612a20565b5b8135612dd7848260208601612d70565b91505092915050565b60008060008060808587031215612dfa57612df961277e565b5b6000612e08878288016129cb565b9450506020612e19878288016129cb565b9350506040612e2a87828801612864565b925050606085013567ffffffffffffffff811115612e4b57612e4a612783565b5b612e5787828801612db2565b91505092959194509250565b7f4e487b7100000000000000000000000000000000000000000000000000000000600052602160045260246000fd5b60038110612ea357612ea2612e63565b5b50565b6000819050612eb482612e92565b919050565b6000612ec482612ea6565b9050919050565b612ed481612eb9565b82525050565b60006080820190508181036000830152612ef481876128fd565b9050612f036020830186612ecb565b612f106040830185612c7c565b612f1d6060830184612819565b95945050505050565b60008060408385031215612f3d57612f3c61277e565b5b6000612f4b858286016129cb565b9250506020612f5c858286016129cb565b9150509250929050565b7f435249544943414c3a20546869732064657669636520646f6573206e6f74206560008201527f78697374206f6e2074686520626c6f636b636861696e21000000000000000000602082015250565b6000612fc26037836128b1565b9150612fcd82612f66565b604082019050919050565b60006020820190508181036000830152612ff181612fb5565b9050919050565b7f4e6f7420617574686f72697a6564210000000000000000000000000000000000600082015250565b600061302e600f836128b1565b915061303982612ff8565b602082019050919050565b6000602082019050818103600083015261305d81613021565b9050919050565b7f446576696365206973206e6f742063757272656e746c792073746f6c656e2e00600082015250565b600061309a601f836128b1565b91506130a582613064565b602082019050919050565b600060208201905081810360008301526130c98161308d565b9050919050565b60006020820190506130e56000830184612ecb565b92915050565b7f4e487b7100000000000000000000000000000000000000000000000000000000600052602260045260246000fd5b6000600282049050600182168061313257607f821691505b602082108103613145576131446130eb565b5b50919050565b600081905092915050565b6000613161826128a6565b61316b818561314b565b935061317b8185602086016128c2565b80840191505092915050565b60006131938284613156565b915081905092915050565b7f4572726f723a2053657269616c20616c7265616479207265676973746572656460008201527f2100000000000000000000000000000000000000000000000000000000000000602082015250565b60006131fa6021836128b1565b91506132058261319e565b604082019050919050565b60006020820190508181036000830152613229816131ed565b9050919050565b7f4e487b7100000000000000000000000000000000000000000000000000000000600052601160045260246000fd5b600061326a82612843565b91507fffffffffffffffffffffffffffffffffffffffffffffffffffffffffffffffff820361329c5761329b613230565b5b600182019050919050565b60008190508160005260206000209050919050565b60006020601f8301049050919050565b600082821b905092915050565b6000600883026133097fffffffffffffffffffffffffffffffffffffffffffffffffffffffffffffffff826132cc565b61331386836132cc565b95508019841693508086168417925050509392505050565b6000819050919050565b600061335061334b61334684612843565b61332b565b612843565b9050919050565b6000819050919050565b61336a83613335565b61337e61337682613357565b8484546132d9565b825550505050565b600090565b613393613386565b61339e818484613361565b505050565b5b818110156133c2576133b760008261338b565b6001810190506133a4565b5050565b601f821115613407576133d8816132a7565b6133e1846132bc565b810160208510156133f0578190505b6134046133fc856132bc565b8301826133a3565b50505b505050565b600082821c905092915050565b600061342a6000198460080261340c565b1980831691505092915050565b60006134438383613419565b9150826002028217905092915050565b61345c826128a6565b67ffffffffffffffff81111561347557613474612a2a565b5b61347f825461311a565b61348a8282856133c6565b600060209050601f8311600181146134bd57600084156134ab578287015190505b6134b58582613437565b86555061351d565b601f1984166134cb866132a7565b60005b828110156134f3578489015182556001820191506020850194506020810190506134ce565b86831015613510578489015161350c601f891682613419565b8355505b6001600288020188555050505b505050505050565b600060608201905061353a600083018661298a565b6135476020830185612c7c565b613554604083018461298a565b949350505050565b7f44657669636520646f6573206e6f742065786973740000000000000000000000600082015250565b60006135926015836128b1565b915061359d8261355c565b602082019050919050565b600060208201905081810360008301526135c181613585565b9050919050565b7f435249544943414c3a2043616e6e6f74207472616e7366657220612073746f6c60008201527f656e2061737365742e204e6574776f726b206c6f636b20616374697665210000602082015250565b6000613624603e836128b1565b915061362f826135c8565b604082019050919050565b6000602082019050818103600083015261365381613617565b9050919050565b7f4e6f7420617574686f72697a6564000000000000000000000000000000000000600082015250565b6000613690600e836128b1565b915061369b8261365a565b602082019050919050565b600060208201905081810360008301526136bf81613683565b9050919050565b7f435249544943414c3a20417373657420697320666c61676765642053544f4c4560008201527f4e2e205472616e7366657220626c6f636b65642e000000000000000000000000602082015250565b60006137226034836128b1565b915061372d826136c6565b604082019050919050565b6000602082019050818103600083015261375181613715565b9050919050565b600081519050919050565b600082825260208201905092915050565b600061377f82613758565b6137898185613763565b93506137998185602086016128c2565b6137a2816128ec565b840191505092915050565b60006080820190506137c2600083018761298a565b6137cf602083018661298a565b6137dc6040830185612c7c565b81810360608301526137ee8184613774565b905095945050505050565b600081519050613808816127b4565b92915050565b6000602082840312156138245761382361277e565b5b6000613832848285016137f9565b91505092915050565b60006138478285613156565b91506138538284613156565b91508190509392505050565b6000604082019050613874600083018561298a565b6138816020830184612c7c565b9392505050565b7f4e487b7100000000000000000000000000000000000000000000000000000000600052601260045260246000fdfea26469706673582212203e6a2579ac5614fc80044009359286774bad61d1531a6907a4a9e364efec255364736f6c63430008140033",
  "linkReferences": {},
  "deployedLinkReferences": {}
}