{
  "_format": "hh-sol-artifact-1",
  "contractName": "AssetGuard",
  "sourceName": "contracts/AssetGuard.sol",
  "abi": [
    {
      "inputs": [],
      "stateMutability": "nonpayable",
      "type": "constructor"
    },
    {
      "inputs": [
        {
          "internalType": "address",
          "name": "sender",
          "type": "address"
        },
        {
          "internalType": "uint256",
          "name": "tokenId",
          "type": "uint256"
        },
        {
          "internalType": "address",
          "name": "owner",
          "type": "address"
        }
      ],
      "name": "ERC721IncorrectOwner",
      "type": "error"
    },
    {
      "inputs": [
        {
          "internalType": "address",
          "name": "operator",
          "type": "address"
        },
        {
          "internalType": "uint256",
          "name": "tokenId",
          "type": "uint256"
        }
      ],
      "name": "ERC721InsufficientApproval",
      "type": "error"
    },
    {
      "inputs": [
        {
          "internalType": "address",
          "name": "approver",
          "type": "address"
        }
      ],
      "name": "ERC721InvalidApprover",
      "type": "error"
    },
    {
      "inputs": [
        {
          "internalType": "address",
          "name": "operator",
          "type": "address"
        }
      ],
      "name": "ERC721InvalidOperator",
      "type": "error"
    },
    {
      "inputs": [
        {
          "internalType": "address",
          "name": "owner",
          "type": "address"
        }
      ],
      "name": "ERC721InvalidOwner",
      "type": "error"
    },
    {
      "inputs": [
        {
          "internalType": "address",
          "name": "receiver",
          "type": "address"
        }
      ],
      "name": "ERC721InvalidReceiver",
      "type": "error"
    },
    {
      "inputs": [
        {
          "internalType": "address",
          "name": "sender",
          "type": "address"
        }
      ],
      "name": "ERC721InvalidSender",
      "type": "error"
    },
    {
      "inputs": [
        {
          "internalType": "uint256",
          "name": "tokenId",
          "type": "uint256"
        }
      ],
      "name": "ERC721NonexistentToken",
      "type": "error"
    },
    {
      "inputs": [
        {
          "internalType": "address",
          "name": "owner",
          "type": "address"
        }
      ],
      "name": "OwnableInvalidOwner",
      "type": "error"
    },
    {
      "inputs": [
        {
          "internalType": "address",
          "name": "account",
          "type": "address"
        }
      ],
      "name": "OwnableUnauthorizedAccount",
      "type": "error"
    },
    {
      "anonymous": false,
      "inputs": [
        {
          "indexed": true,
          "internalType": "address",
          "name": "owner",
          "type": "address"
        },
        {
          "indexed": true,
          "internalType": "address",
          "name": "approved",
          "type": "address"
        },
        {
          "indexed": true,
          "internalType": "uint256",
          "name": "tokenId",
          "type": "uint256"
        }
      ],
      "name": "Approval",
      "type": "event"
    },
    {
      "anonymous": false,
      "inputs": [
        {
          "indexed": true,
          "internalType": "address",
          "name": "owner",
          "type": "address"
        },
        {
          "indexed": true,
          "internalType": "address",
          "name": "operator",
          "type": "address"
        },
        {
          "indexed": false,
          "internalType": "bool",
          "name": "approved",
          "type": "bool"
        }
      ],
      "name": "ApprovalForAll",
      "type": "event"
    },
    {
      "anonymous": false,
      "inputs": [
        {
          "indexed": false,
          "internalType": "uint256",
          "name": "_fromTokenId",
          "type": "uint256"
        },
        {
          "indexed": false,
          "internalType": "uint256",
          "name": "_toTokenId",
          "type": "uint256"
        }
      ],
      "name": "BatchMetadataUpdate",
      "type": "event"
    },
    {
      "anonymous": false,
      "inputs": [
        {
          "indexed": true,
          "internalType": "uint256",
          "name": "tokenId",
          "type": "uint256"
        },
        {
          "indexed": false,
          "internalType": "enum AssetGuard.Status",
          "name": "status",
          "type": "uint8"
        }
      ],
      "name": "ItemReported",
      "type": "event"
    },
    {
      "anonymous": false,
      "inputs": [
        {
          "indexed": false,
          "internalType": "uint256",
          "name": "_tokenId",
          "type": "uint256"
        }
      ],
      "name": "MetadataUpdate",
      "type": "event"
    },
    {
      "anonymous": false,
      "inputs": [
        {
          "indexed": true,
          "internalType": "address",
          "name": "previousOwner",
          "type": "address"
        },
        {
          "indexed": true,
          "internalType": "address",
          "name": "newOwner",
          "type": "address"
        }
      ],
      "name": "OwnershipTransferred",
      "type": "event"
    },
    {
      "anonymous": false,
      "inputs": [
        {
          "indexed": true,
          "internalType": "address",
          "name": "from",
          "type": "address"
        },
        {
          "indexed": true,
          "internalType": "address",
          "name": "to",
          "type": "address"
        },
        {
          "indexed": true,
          "internalType": "uint256",
          "name": "tokenId",
          "type": "uint256"
        }
      ],
      "name": "Transfer",
      "type": "event"
    },
    {
      "inputs": [
        {
          "internalType": "address",
          "name": "relayer",
          "type": "address"
        }
      ],
      "name": "addRelayer",
      "outputs": [],
      "stateMutability": "nonpayable",
      "type": "function"
    },
    {
      "inputs": [
        {
          "internalType": "address",
          "name": "to",
          "type": "address"
        },
        {
          "internalType": "uint256",
          "name": "tokenId",
          "type": "uint256"
        }
      ],
      "name": "approve",
      "outputs": [],
      "stateMutability": "nonpayable",
      "type": "function"
    },
    {
      "inputs": [
        {
          "internalType": "address",
          "name": "",
          "type": "address"
        }
      ],
      "name": "approvedRelayers",
      "outputs": [
        {
          "internalType": "bool",
          "name": "",
          "type": "bool"
        }
      ],
      "stateMutability": "view",
      "type": "function"
    },
    {
      "inputs": [
        {
          "internalType": "address",
          "name": "owner",
          "type": "address"
        }
      ],
      "name": "balanceOf",
      "outputs": [
        {
          "internalType": "uint256",
          "name": "",
          "type": "uint256"
        }
      ],
      "stateMutability": "view",
      "type": "function"
    },
    {
      "inputs": [
        {
          "internalType": "uint256",
          "name": "tokenId",
          "type": "uint256"
        }
      ],
      "name": "getApproved",
      "outputs": [
        {
          "internalType": "address",
          "name": "",
          "type": "address"
        }
      ],
      "stateMutability": "view",
      "type": "function"
    },
    {
      "inputs": [
        {
          "internalType": "address",
          "name": "owner",
          "type": "address"
        },
        {
          "internalType": "address",
          "name": "operator",
          "type": "address"
        }
      ],
      "name": "isApprovedForAll",
      "outputs": [
        {
          "internalType": "bool",
          "name": "",
          "type": "bool"
        }
      ],
      "stateMutability": "view",
      "type": "function"
    },
    {
      "inputs": [
        {
          "internalType": "uint256",
          "name": "",
          "type": "uint256"
        }
      ],
      "name": "items",
      "outputs": [
        {
          "internalType": "string",
          "name": "serialNumber",
          "type": "string"
        },
        {
          "internalType": "enum AssetGuard.Status",
          "name": "status",
          "type": "uint8"
        },
        {
          "internalType": "uint256",
          "name": "reportDate",
          "type": "uint256"
        },
        {
          "internalType": "bool",
          "name": "isMinted",
          "type": "bool"
        }
      ],
      "stateMutability": "view",
      "type": "function"
    },
    {
      "inputs": [
        {
          "internalType": "address",
          "name": "to",
          "type": "address"
        },
        {
          "internalType": "string",
          "name": "serial",
          "type": "string"
        },
        {
          "internalType": "string",
          "name": "uri",
          "type": "string"
        }
      ],
      "name": "manufacturerMint",
      "outputs": [],
      "stateMutability": "nonpayable",
      "type": "function"
    },
    {
      "inputs": [],
      "name": "name",
      "outputs": [
        {
          "internalType": "string",
          "name": "",
          "type": "string"
        }
      ],
      "stateMutability": "view",
      "type": "function"
    },
    {
      "inputs": [],
      "name": "owner",
      "outputs": [
        {
          "internalType": "address",
          "name": "",
          "type": "address"
        }
      ],
      "stateMutability": "view",
      "type": "function"
    },
    {
      "inputs": [
        {
          "internalType": "uint256",
          "name": "tokenId",
          "type": "uint256"
        }
      ],
      "name": "ownerOf",
      "outputs": [
        {
          "internalType": "address",
          "name": "",
          "type": "address"
        }
      ],
      "stateMutability": "view",
      "type": "function"
    },
    {
      "inputs": [],
      "name": "renounceOwnership",
      "outputs": [],
      "stateMutability": "nonpayable",
      "type": "function"
    },
    {
      "inputs": [
        {
          "internalType": "uint256",
          "name": "tokenId",
          "type": "uint256"
        }
      ],
      "name": "reportStolen",
      "outputs": [],
      "stateMutability": "nonpayable",
      "type": "function"
    },
    {
      "inputs": [
        {
          "internalType": "address",
          "name": "from",
          "type": "address"
        },
        {
          "internalType": "address",
          "name": "to",
          "type": "address"
        },
        {
          "internalType": "uint256",
          "name": "tokenId",
          "type": "uint256"
        }
      ],
      "name": "safeTransferFrom",
      "outputs": [],
      "stateMutability": "nonpayable",
      "type": "function"
    },
    {
      "inputs": [
        {
          "internalType": "address",
          "name": "from",
          "type": "address"
        },
        {
          "internalType": "address",
          "name": "to",
          "type": "address"
        },
        {
          "internalType": "uint256",
          "name": "tokenId",
          "type": "uint256"
        },
        {
          "internalType": "bytes",
          "name": "data",
          "type": "bytes"
        }
      ],
      "name": "safeTransferFrom",
      "outputs": [],
      "stateMutability": "nonpayable",
      "type": "function"
    },
    {
      "inputs": [
        {
          "internalType": "string",
          "name": "",
          "type": "string"
        }
      ],
      "name": "serialExists",
      "outputs": [
        {
          "internalType": "bool",
          "name": "",
          "type": "bool"
        }
      ],
      "stateMutability": "view",
      "type": "function"
    },
    {
      "inputs": [
        {
          "internalType": "string",
          "name": "",
          "type": "string"
        }
      ],
      "name": "serialToTokenId",
      "outputs": [
        {
          "internalType": "uint256",
          "name": "",
          "type": "uint256"
        }
      ],
      "stateMutability": "view",
      "type": "function"
    },
    {
      "inputs": [
        {
          "internalType": "address",
          "name": "operator",
          "type": "address"
        },
        {
          "internalType": "bool",
          "name": "approved",
          "type": "bool"
        }
      ],
      "name": "setApprovalForAll",
      "outputs": [],
      "stateMutability": "nonpayable",
      "type": "function"
    },
    {
      "inputs": [
        {
          "internalType": "bytes4",
          "name": "interfaceId",
          "type": "bytes4"
        }
      ],
      "name": "supportsInterface",
      "outputs": [
        {
          "internalType": "bool",
          "name": "",
          "type": "bool"
        }
      ],
      "stateMutability": "view",
      "type": "function"
    },
    {
      "inputs": [],
      "name": "symbol",
      "outputs": [
        {
          "internalType": "string",
          "name": "",
          "type": "string"
        }
      ],
      "stateMutability": "view",
      "type": "function"
    },
    {
      "inputs": [
        {
          "internalType": "uint256",
          "name": "tokenId",
          "type": "uint256"
        }
      ],
      "name": "tokenURI",
      "outputs": [
        {
          "internalType": "string",
          "name": "",
          "type": "string"
        }
      ],
      "stateMutability": "view",
      "type": "function"
    },
    {
      "inputs": [
        {
          "internalType": "address",
          "name": "from",
          "type": "address"
        },
        {
          "internalType": "address",
          "name": "to",
          "type": "address"
        },
        {
          "internalType": "uint256",
          "name": "tokenId",
          "type": "uint256"
        }
      ],
      "name": "transferFrom",
      "outputs": [],
      "stateMutability": "nonpayable",
      "type": "function"
    },
    {
      "inputs": [
        {
          "internalType": "address",
          "name": "newOwner",
          "type": "address"
        }
      ],
      "name": "transferOwnership",
      "outputs": [],
      "stateMutability": "nonpayable",
      "type": "function"
    }
  ],
  "bytecode": "0x60806040523480156200001157600080fd5b50336040518060400160405280600a81526020017f41737365744775617264000000000000000000000000000000000000000000008152506040518060400160405280600381526020017f4147440000000000000000000000000000000000000000000000000000000000815250816000908162000090919062000472565b508060019081620000a2919062000472565b505050600073ffffffffffffffffffffffffffffffffffffffff168173ffffffffffffffffffffffffffffffffffffffff16036200011a5760006040517f1e4fbdf70000000000000000000000000000000000000000000000000000000081526004016200011191906200059e565b60405180910390fd5b6200012b816200013260201b60201c565b50620005bb565b6000600760009054906101000a900473ffffffffffffffffffffffffffffffffffffffff16905081600760006101000a81548173ffffffffffffffffffffffffffffffffffffffff021916908373ffffffffffffffffffffffffffffffffffffffff1602179055508173ffffffffffffffffffffffffffffffffffffffff168173ffffffffffffffffffffffffffffffffffffffff167f8be0079c531659141344cd1fd0a4f28419497f9722a3daafe3b4186f6b6457e060405160405180910390a35050565b600081519050919050565b7f4e487b7100000000000000000000000000000000000000000000000000000000600052604160045260246000fd5b7f4e487b7100000000000000000000000000000000000000000000000000000000600052602260045260246000fd5b600060028204905060018216806200027a57607f821691505b60208210810362000290576200028f62000232565b5b50919050565b60008190508160005260206000209050919050565b60006020601f8301049050919050565b600082821b905092915050565b600060088302620002fa7fffffffffffffffffffffffffffffffffffffffffffffffffffffffffffffffff82620002bb565b620003068683620002bb565b95508019841693508086168417925050509392505050565b6000819050919050565b6000819050919050565b6000620003536200034d62000347846200031e565b62000328565b6200031e565b9050919050565b6000819050919050565b6200036f8362000332565b620003876200037e826200035a565b848454620002c8565b825550505050565b600090565b6200039e6200038f565b620003ab81848462000364565b505050565b5b81811015620003d357620003c760008262000394565b600181019050620003b1565b5050565b601f8211156200042257620003ec8162000296565b620003f784620002ab565b8101602085101562000407578190505b6200041f6200041685620002ab565b830182620003b0565b50505b505050565b600082821c905092915050565b6000620004476000198460080262000427565b1980831691505092915050565b600062000462838362000434565b9150826002028217905092915050565b6200047d82620001f8565b67ffffffffffffffff81111562000499576200049862000203565b5b620004a5825462000261565b620004b2828285620003d7565b600060209050601f831160018114620004ea5760008415620004d5578287015190505b620004e1858262000454565b86555062000551565b601f198416620004fa8662000296565b60005b828110156200052457848901518255600182019150602085019450602081019050620004fd565b8683101562000544578489015162000540601f89168262000434565b8355505b6001600288020188555050505b505050505050565b600073ffffffffffffffffffffffffffffffffffffffff82169050919050565b6000620005868262000559565b9050919050565b620005988162000579565b82525050565b6000602082019050620005b560008301846200058d565b92915050565b61313e80620005cb6000396000f3fe608060405234801561001057600080fd5b506004361061014d5760003560e01c8063715018a6116100c3578063b88d4fde1161007c578063b88d4fde146103ae578063bfb231d2146103ca578063c87b56dd146103fd578063dd39f00d1461042d578063e985e9c514610449578063f2fde38b146104795761014d565b8063715018a6146102ec5780638cba8b6a146102f65780638da5cb5b146103265780638ea090af1461034457806395d89b4114610374578063a22cb465146103925761014d565b806323b872dd1161011557806323b872dd14610208578063389a032a1461022457806342842e0e14610240578063591636351461025c5780636352211e1461028c57806370a08231146102bc5761014d565b806301ffc9a71461015257806306fdde0314610182578063081812fc146101a0578063095ea7b3146101d05780631b41aab3146101ec575b600080fd5b61016c60048036038101906101679190612207565b610495565b604051610179919061224f565b60405180910390f35b61018a6104a7565b60405161019791906122fa565b60405180910390f35b6101ba60048036038101906101b59190612352565b610539565b6040516101c791906123c0565b60405180910390f35b6101ea60048036038101906101e59190612407565b610555565b005b6102066004803603810190610201919061257c565b61056b565b005b610222600480360381019061021d9190612607565b61072c565b005b61023e60048036038101906102399190612352565b61082e565b005b61025a60048036038101906102559190612607565b6109f8565b005b6102766004803603810190610271919061265a565b610a18565b60405161028391906126b2565b60405180910390f35b6102a660048036038101906102a19190612352565b610a46565b6040516102b391906123c0565b60405180910390f35b6102d660048036038101906102d191906126cd565b610a58565b6040516102e391906126b2565b60405180910390f35b6102f4610b12565b005b610310600480360381019061030b91906126cd565b610b26565b60405161031d919061224f565b60405180910390f35b61032e610b46565b60405161033b91906123c0565b60405180910390f35b61035e6004803603810190610359919061265a565b610b70565b60405161036b919061224f565b60405180910390f35b61037c610ba6565b60405161038991906122fa565b60405180910390f35b6103ac60048036038101906103a79190612726565b610c38565b005b6103c860048036038101906103c39190612807565b610c4e565b005b6103e460048036038101906103df9190612352565b610c73565b6040516103f49493929190612901565b60405180910390f35b61041760048036038101906104129190612352565b610d45565b60405161042491906122fa565b60405180910390f35b610447600480360381019061044291906126cd565b610d57565b005b610463600480360381019061045e919061294d565b610dba565b604051610470919061224f565b60405180910390f35b610493600480360381019061048e91906126cd565b610e4e565b005b60006104a082610ed4565b9050919050565b6060600080546104b6906129bc565b80601f01602080910402602001604051908101604052809291908181526020018280546104e2906129bc565b801561052f5780601f106105045761010080835404028352916020019161052f565b820191906000526020600020905b81548152906001019060200180831161051257829003601f168201915b5050505050905090565b600061054482610f35565b5061054e82610fbd565b9050919050565b6105678282610562610ffa565b611002565b5050565b610573611014565b600b826040516105839190612a29565b908152602001604051809103902060009054906101000a900460ff16156105df576040517f08c379a00000000000000000000000000000000000000000000000000000000081526004016105d690612ab2565b60405180910390fd5b6000600860008154809291906105f490612b01565b919050559050610604848261109b565b61060e81836110b9565b6040518060800160405280848152602001600060028111156106335761063261288a565b5b8152602001600081526020016001151581525060096000838152602001908152602001600020600082015181600001908161066e9190612cf5565b5060208201518160010160006101000a81548160ff0219169083600281111561069a5761069961288a565b5b02179055506040820151816002015560608201518160030160006101000a81548160ff02191690831515021790555090505080600a846040516106dd9190612a29565b9081526020016040518091039020819055506001600b846040516107019190612a29565b908152602001604051809103902060006101000a81548160ff02191690831515021790555050505050565b600073ffffffffffffffffffffffffffffffffffffffff168273ffffffffffffffffffffffffffffffffffffffff160361079e5760006040517f64a0ae9200000000000000000000000000000000000000000000000000000000815260040161079591906123c0565b60405180910390fd5b60006107b283836107ad610ffa565b611115565b90508373ffffffffffffffffffffffffffffffffffffffff168173ffffffffffffffffffffffffffffffffffffffff1614610828578382826040517f64283d7b00000000000000000000000000000000000000000000000000000000815260040161081f93929190612dc7565b60405180910390fd5b50505050565b600115156009600083815260200190815260200160002060030160009054906101000a900460ff16151514610898576040517f08c379a000000000000000000000000000000000000000000000000000000000815260040161088f90612e70565b60405180910390fd5b6108a181610a46565b73ffffffffffffffffffffffffffffffffffffffff163373ffffffffffffffffffffffffffffffffffffffff1614806109235750600c60003373ffffffffffffffffffffffffffffffffffffffff1673ffffffffffffffffffffffffffffffffffffffff16815260200190815260200160002060009054906101000a900460ff165b610962576040517f08c379a000000000000000000000000000000000000000000000000000000000815260040161095990612edc565b60405180910390fd5b60016009600083815260200190815260200160002060010160006101000a81548160ff0219169083600281111561099c5761099b61288a565b5b0217905550426009600083815260200190815260200160002060020181905550807f8a72e066c04aefe8f8a48306449441156991f023f739df3987292ed4f997416860016040516109ed9190612efc565b60405180910390a250565b610a1383838360405180602001604052806000815250610c4e565b505050565b600a818051602081018201805184825260208301602085012081835280955050505050506000915090505481565b6000610a5182610f35565b9050919050565b60008073ffffffffffffffffffffffffffffffffffffffff168273ffffffffffffffffffffffffffffffffffffffff1603610acb5760006040517f89c62b64000000000000000000000000000000000000000000000000000000008152600401610ac291906123c0565b60405180910390fd5b600360008373ffffffffffffffffffffffffffffffffffffffff1673ffffffffffffffffffffffffffffffffffffffff168152602001908152602001600020549050919050565b610b1a611014565b610b2460006111f7565b565b600c6020528060005260406000206000915054906101000a900460ff1681565b6000600760009054906101000a900473ffffffffffffffffffffffffffffffffffffffff16905090565b600b818051602081018201805184825260208301602085012081835280955050505050506000915054906101000a900460ff1681565b606060018054610bb5906129bc565b80601f0160208091040260200160405190810160405280929190818152602001828054610be1906129bc565b8015610c2e5780601f10610c0357610100808354040283529160200191610c2e565b820191906000526020600020905b815481529060010190602001808311610c1157829003601f168201915b5050505050905090565b610c4a610c43610ffa565b83836112bd565b5050565b610c5984848461072c565b610c6d610c64610ffa565b8585858561142c565b50505050565b6009602052806000526040600020600091509050806000018054610c96906129bc565b80601f0160208091040260200160405190810160405280929190818152602001828054610cc2906129bc565b8015610d0f5780601f10610ce457610100808354040283529160200191610d0f565b820191906000526020600020905b815481529060010190602001808311610cf257829003601f168201915b5050505050908060010160009054906101000a900460ff16908060020154908060030160009054906101000a900460ff16905084565b6060610d50826115dd565b9050919050565b610d5f611014565b6001600c60008373ffffffffffffffffffffffffffffffffffffffff1673ffffffffffffffffffffffffffffffffffffffff16815260200190815260200160002060006101000a81548160ff02191690831515021790555050565b6000600560008473ffffffffffffffffffffffffffffffffffffffff1673ffffffffffffffffffffffffffffffffffffffff16815260200190815260200160002060008373ffffffffffffffffffffffffffffffffffffffff1673ffffffffffffffffffffffffffffffffffffffff16815260200190815260200160002060009054906101000a900460ff16905092915050565b610e56611014565b600073ffffffffffffffffffffffffffffffffffffffff168173ffffffffffffffffffffffffffffffffffffffff1603610ec85760006040517f1e4fbdf7000000000000000000000000000000000000000000000000000000008152600401610ebf91906123c0565b60405180910390fd5b610ed1816111f7565b50565b6000634906490660e01b7bffffffffffffffffffffffffffffffffffffffffffffffffffffffff1916827bffffffffffffffffffffffffffffffffffffffffffffffffffffffff19161480610f2e5750610f2d826116f0565b5b9050919050565b600080610f41836117d2565b9050600073ffffffffffffffffffffffffffffffffffffffff168173ffffffffffffffffffffffffffffffffffffffff1603610fb457826040517f7e273289000000000000000000000000000000000000000000000000000000008152600401610fab91906126b2565b60405180910390fd5b80915050919050565b60006004600083815260200190815260200160002060009054906101000a900473ffffffffffffffffffffffffffffffffffffffff169050919050565b600033905090565b61100f838383600161180f565b505050565b61101c610ffa565b73ffffffffffffffffffffffffffffffffffffffff1661103a610b46565b73ffffffffffffffffffffffffffffffffffffffff16146110995761105d610ffa565b6040517f118cdaa700000000000000000000000000000000000000000000000000000000815260040161109091906123c0565b60405180910390fd5b565b6110b58282604051806020016040528060008152506119d4565b5050565b806006600084815260200190815260200160002090816110d99190612cf5565b507ff8e1a15aba9398e019f0b49df1a4fde98ee17ae345cb5f6b5e2c27f5033e8ce78260405161110991906126b2565b60405180910390a15050565b600080611121846117d2565b9050600073ffffffffffffffffffffffffffffffffffffffff168173ffffffffffffffffffffffffffffffffffffffff16146111e2576001600281111561116b5761116a61288a565b5b6009600086815260200190815260200160002060010160009054906101000a900460ff1660028111156111a1576111a061288a565b5b036111e1576040517f08c379a00000000000000000000000000000000000000000000000000000000081526004016111d890612f89565b60405180910390fd5b5b6111ed8585856119f8565b9150509392505050565b6000600760009054906101000a900473ffffffffffffffffffffffffffffffffffffffff16905081600760006101000a81548173ffffffffffffffffffffffffffffffffffffffff021916908373ffffffffffffffffffffffffffffffffffffffff1602179055508173ffffffffffffffffffffffffffffffffffffffff168173ffffffffffffffffffffffffffffffffffffffff167f8be0079c531659141344cd1fd0a4f28419497f9722a3daafe3b4186f6b6457e060405160405180910390a35050565b600073ffffffffffffffffffffffffffffffffffffffff168273ffffffffffffffffffffffffffffffffffffffff160361132e57816040517f5b08ba1800000000000000000000000000000000000000000000000000000000815260040161132591906123c0565b60405180910390fd5b80600560008573ffffffffffffffffffffffffffffffffffffffff1673ffffffffffffffffffffffffffffffffffffffff16815260200190815260200160002060008473ffffffffffffffffffffffffffffffffffffffff1673ffffffffffffffffffffffffffffffffffffffff16815260200190815260200160002060006101000a81548160ff0219169083151502179055508173ffffffffffffffffffffffffffffffffffffffff168373ffffffffffffffffffffffffffffffffffffffff167f17307eab39ab6107e8899845ad3d59bd9653f200f220920489ca2b5937696c318360405161141f919061224f565b60405180910390a3505050565b60008373ffffffffffffffffffffffffffffffffffffffff163b11156115d6578273ffffffffffffffffffffffffffffffffffffffff1663150b7a02868685856040518563ffffffff1660e01b815260040161148b9493929190612ffe565b6020604051808303816000875af19250505080156114c757506040513d601f19601f820116820180604052508101906114c4919061305f565b60015b61154b573d80600081146114f7576040519150601f19603f3d011682016040523d82523d6000602084013e6114fc565b606091505b50600081510361154357836040517f64a0ae9200000000000000000000000000000000000000000000000000000000815260040161153a91906123c0565b60405180910390fd5b805160208201fd5b63150b7a0260e01b7bffffffffffffffffffffffffffffffffffffffffffffffffffffffff1916817bffffffffffffffffffffffffffffffffffffffffffffffffffffffff1916146115d457836040517f64a0ae920000000000000000000000000000000000000000000000000000000081526004016115cb91906123c0565b60405180910390fd5b505b5050505050565b60606115e882610f35565b506000600660008481526020019081526020016000208054611609906129bc565b80601f0160208091040260200160405190810160405280929190818152602001828054611635906129bc565b80156116825780601f1061165757610100808354040283529160200191611682565b820191906000526020600020905b81548152906001019060200180831161166557829003601f168201915b505050505090506000611693611c12565b905060008151036116a85781925050506116eb565b6000825111156116dd5780826040516020016116c592919061308c565b604051602081830303815290604052925050506116eb565b6116e684611c29565b925050505b919050565b60007f80ac58cd000000000000000000000000000000000000000000000000000000007bffffffffffffffffffffffffffffffffffffffffffffffffffffffff1916827bffffffffffffffffffffffffffffffffffffffffffffffffffffffff191614806117bb57507f5b5e139f000000000000000000000000000000000000000000000000000000007bffffffffffffffffffffffffffffffffffffffffffffffffffffffff1916827bffffffffffffffffffffffffffffffffffffffffffffffffffffffff1916145b806117cb57506117ca82611c92565b5b9050919050565b60006002600083815260200190815260200160002060009054906101000a900473ffffffffffffffffffffffffffffffffffffffff169050919050565b80806118485750600073ffffffffffffffffffffffffffffffffffffffff168273ffffffffffffffffffffffffffffffffffffffff1614155b1561197c57600061185884610f35565b9050600073ffffffffffffffffffffffffffffffffffffffff168373ffffffffffffffffffffffffffffffffffffffff16141580156118c357508273ffffffffffffffffffffffffffffffffffffffff168173ffffffffffffffffffffffffffffffffffffffff1614155b80156118d657506118d48184610dba565b155b1561191857826040517fa9fbf51f00000000000000000000000000000000000000000000000000000000815260040161190f91906123c0565b60405180910390fd5b811561197a57838573ffffffffffffffffffffffffffffffffffffffff168273ffffffffffffffffffffffffffffffffffffffff167f8c5be1e5ebec7d5bd14f71427d1e84f3dd0314c0f7b2291e5b200ac8c7c3b92560405160405180910390a45b505b836004600085815260200190815260200160002060006101000a81548173ffffffffffffffffffffffffffffffffffffffff021916908373ffffffffffffffffffffffffffffffffffffffff16021790555050505050565b6119de8383611cfc565b6119f36119e9610ffa565b600085858561142c565b505050565b600080611a04846117d2565b9050600073ffffffffffffffffffffffffffffffffffffffff168373ffffffffffffffffffffffffffffffffffffffff1614611a4657611a45818486611df5565b5b600073ffffffffffffffffffffffffffffffffffffffff168173ffffffffffffffffffffffffffffffffffffffff1614611ad757611a8860008560008061180f565b6001600360008373ffffffffffffffffffffffffffffffffffffffff1673ffffffffffffffffffffffffffffffffffffffff168152602001908152602001600020600082825403925050819055505b600073ffffffffffffffffffffffffffffffffffffffff168573ffffffffffffffffffffffffffffffffffffffff1614611b5a576001600360008773ffffffffffffffffffffffffffffffffffffffff1673ffffffffffffffffffffffffffffffffffffffff168152602001908152602001600020600082825401925050819055505b846002600086815260200190815260200160002060006101000a81548173ffffffffffffffffffffffffffffffffffffffff021916908373ffffffffffffffffffffffffffffffffffffffff160217905550838573ffffffffffffffffffffffffffffffffffffffff168273ffffffffffffffffffffffffffffffffffffffff167fddf252ad1be2c89b69c2b068fc378daa952ba7f163c4a11628f55a4df523b3ef60405160405180910390a4809150509392505050565b606060405180602001604052806000815250905090565b6060611c3482610f35565b506000611c3f611c12565b90506000815111611c5f5760405180602001604052806000815250611c8a565b80611c6984611eb9565b604051602001611c7a92919061308c565b6040516020818303038152906040525b915050919050565b60007f01ffc9a7000000000000000000000000000000000000000000000000000000007bffffffffffffffffffffffffffffffffffffffffffffffffffffffff1916827bffffffffffffffffffffffffffffffffffffffffffffffffffffffff1916149050919050565b600073ffffffffffffffffffffffffffffffffffffffff168273ffffffffffffffffffffffffffffffffffffffff1603611d6e5760006040517f64a0ae92000000000000000000000000000000000000000000000000000000008152600401611d6591906123c0565b60405180910390fd5b6000611d7c83836000611115565b9050600073ffffffffffffffffffffffffffffffffffffffff168173ffffffffffffffffffffffffffffffffffffffff1614611df05760006040517f73c6ac6e000000000000000000000000000000000000000000000000000000008152600401611de791906123c0565b60405180910390fd5b505050565b611e00838383611f87565b611eb457600073ffffffffffffffffffffffffffffffffffffffff168373ffffffffffffffffffffffffffffffffffffffff1603611e7557806040517f7e273289000000000000000000000000000000000000000000000000000000008152600401611e6c91906126b2565b60405180910390fd5b81816040517f177e802f000000000000000000000000000000000000000000000000000000008152600401611eab9291906130b0565b60405180910390fd5b505050565b606060006001611ec884612048565b01905060008167ffffffffffffffff811115611ee757611ee6612451565b5b6040519080825280601f01601f191660200182016040528015611f195781602001600182028036833780820191505090505b509050600082602083010190505b600115611f7c578080600190039150507f3031323334353637383961626364656600000000000000000000000000000000600a86061a8153600a8581611f7057611f6f6130d9565b5b04945060008503611f27575b819350505050919050565b60008073ffffffffffffffffffffffffffffffffffffffff168373ffffffffffffffffffffffffffffffffffffffff161415801561203f57508273ffffffffffffffffffffffffffffffffffffffff168473ffffffffffffffffffffffffffffffffffffffff1614806120005750611fff8484610dba565b5b8061203e57508273ffffffffffffffffffffffffffffffffffffffff1661202683610fbd565b73ffffffffffffffffffffffffffffffffffffffff16145b5b90509392505050565b600080600090507a184f03e93ff9f4daa797ed6e38ed64bf6a1f01000000000000000083106120a6577a184f03e93ff9f4daa797ed6e38ed64bf6a1f010000000000000000838161209c5761209b6130d9565b5b0492506040810190505b6d04ee2d6d415b85acef810000000083106120e3576d04ee2d6d415b85acef810000000083816120d9576120d86130d9565b5b0492506020810190505b662386f26fc10000831061211257662386f26fc100008381612108576121076130d9565b5b0492506010810190505b6305f5e100831061213b576305f5e1008381612131576121306130d9565b5b0492506008810190505b6127108310612160576127108381612156576121556130d9565b5b0492506004810190505b606483106121835760648381612179576121786130d9565b5b0492506002810190505b600a8310612192576001810190505b80915050919050565b6000604051905090565b600080fd5b600080fd5b60007fffffffff0000000000000000000000000000000000000000000000000000000082169050919050565b6121e4816121af565b81146121ef57600080fd5b50565b600081359050612201816121db565b92915050565b60006020828403121561221d5761221c6121a5565b5b600061222b848285016121f2565b91505092915050565b60008115159050919050565b61224981612234565b82525050565b60006020820190506122646000830184612240565b92915050565b600081519050919050565b600082825260208201905092915050565b60005b838110156122a4578082015181840152602081019050612289565b60008484015250505050565b6000601f19601f8301169050919050565b60006122cc8261226a565b6122d68185612275565b93506122e6818560208601612286565b6122ef816122b0565b840191505092915050565b6000602082019050818103600083015261231481846122c1565b905092915050565b6000819050919050565b61232f8161231c565b811461233a57600080fd5b50565b60008135905061234c81612326565b92915050565b600060208284031215612368576123676121a5565b5b60006123768482850161233d565b91505092915050565b600073ffffffffffffffffffffffffffffffffffffffff82169050919050565b60006123aa8261237f565b9050919050565b6123ba8161239f565b82525050565b60006020820190506123d560008301846123b1565b92915050565b6123e48161239f565b81146123ef57600080fd5b50565b600081359050612401816123db565b92915050565b6000806040838503121561241e5761241d6121a5565b5b600061242c858286016123f2565b925050602061243d8582860161233d565b9150509250929050565b600080fd5b600080fd5b7f4e487b7100000000000000000000000000000000000000000000000000000000600052604160045260246000fd5b612489826122b0565b810181811067ffffffffffffffff821117156124a8576124a7612451565b5b80604052505050565b60006124bb61219b565b90506124c78282612480565b919050565b600067ffffffffffffffff8211156124e7576124e6612451565b5b6124f0826122b0565b9050602081019050919050565b82818337600083830152505050565b600061251f61251a846124cc565b6124b1565b90508281526020810184848401111561253b5761253a61244c565b5b6125468482856124fd565b509392505050565b600082601f83011261256357612562612447565b5b813561257384826020860161250c565b91505092915050565b600080600060608486031215612595576125946121a5565b5b60006125a3868287016123f2565b935050602084013567ffffffffffffffff8111156125c4576125c36121aa565b5b6125d08682870161254e565b925050604084013567ffffffffffffffff8111156125f1576125f06121aa565b5b6125fd8682870161254e565b9150509250925092565b6000806000606084860312156126205761261f6121a5565b5b600061262e868287016123f2565b935050602061263f868287016123f2565b92505060406126508682870161233d565b9150509250925092565b6000602082840312156126705761266f6121a5565b5b600082013567ffffffffffffffff81111561268e5761268d6121aa565b5b61269a8482850161254e565b91505092915050565b6126ac8161231c565b82525050565b60006020820190506126c760008301846126a3565b92915050565b6000602082840312156126e3576126e26121a5565b5b60006126f1848285016123f2565b91505092915050565b61270381612234565b811461270e57600080fd5b50565b600081359050612720816126fa565b92915050565b6000806040838503121561273d5761273c6121a5565b5b600061274b858286016123f2565b925050602061275c85828601612711565b9150509250929050565b600067ffffffffffffffff82111561278157612780612451565b5b61278a826122b0565b9050602081019050919050565b60006127aa6127a584612766565b6124b1565b9050828152602081018484840111156127c6576127c561244c565b5b6127d18482856124fd565b509392505050565b600082601f8301126127ee576127ed612447565b5b81356127fe848260208601612797565b91505092915050565b60008060008060808587031215612821576128206121a5565b5b600061282f878288016123f2565b9450506020612840878288016123f2565b93505060406128518782880161233d565b925050606085013567ffffffffffffffff811115612872576128716121aa565b5b61287e878288016127d9565b91505092959194509250565b7f4e487b7100000000000000000000000000000000000000000000000000000000600052602160045260246000fd5b600381106128ca576128c961288a565b5b50565b60008190506128db826128b9565b919050565b60006128eb826128cd565b9050919050565b6128fb816128e0565b82525050565b6000608082019050818103600083015261291b81876122c1565b905061292a60208301866128f2565b61293760408301856126a3565b6129446060830184612240565b95945050505050565b60008060408385031215612964576129636121a5565b5b6000612972858286016123f2565b9250506020612983858286016123f2565b9150509250929050565b7f4e487b7100000000000000000000000000000000000000000000000000000000600052602260045260246000fd5b600060028204905060018216806129d457607f821691505b6020821081036129e7576129e661298d565b5b50919050565b600081905092915050565b6000612a038261226a565b612a0d81856129ed565b9350612a1d818560208601612286565b80840191505092915050565b6000612a3582846129f8565b915081905092915050565b7f4572726f723a2053657269616c20616c7265616479207265676973746572656460008201527f2100000000000000000000000000000000000000000000000000000000000000602082015250565b6000612a9c602183612275565b9150612aa782612a40565b604082019050919050565b60006020820190508181036000830152612acb81612a8f565b9050919050565b7f4e487b7100000000000000000000000000000000000000000000000000000000600052601160045260246000fd5b6000612b0c8261231c565b91507fffffffffffffffffffffffffffffffffffffffffffffffffffffffffffffffff8203612b3e57612b3d612ad2565b5b600182019050919050565b60008190508160005260206000209050919050565b60006020601f8301049050919050565b600082821b905092915050565b600060088302612bab7fffffffffffffffffffffffffffffffffffffffffffffffffffffffffffffffff82612b6e565b612bb58683612b6e565b95508019841693508086168417925050509392505050565b6000819050919050565b6000612bf2612bed612be88461231c565b612bcd565b61231c565b9050919050565b6000819050919050565b612c0c83612bd7565b612c20612c1882612bf9565b848454612b7b565b825550505050565b600090565b612c35612c28565b612c40818484612c03565b505050565b5b81811015612c6457612c59600082612c2d565b600181019050612c46565b5050565b601f821115612ca957612c7a81612b49565b612c8384612b5e565b81016020851015612c92578190505b612ca6612c9e85612b5e565b830182612c45565b50505b505050565b600082821c905092915050565b6000612ccc60001984600802612cae565b1980831691505092915050565b6000612ce58383612cbb565b9150826002028217905092915050565b612cfe8261226a565b67ffffffffffffffff811115612d1757612d16612451565b5b612d2182546129bc565b612d2c828285612c68565b600060209050601f831160018114612d5f5760008415612d4d578287015190505b612d578582612cd9565b865550612dbf565b601f198416612d6d86612b49565b60005b82811015612d9557848901518255600182019150602085019450602081019050612d70565b86831015612db25784890151612dae601f891682612cbb565b8355505b6001600288020188555050505b505050505050565b6000606082019050612ddc60008301866123b1565b612de960208301856126a3565b612df660408301846123b1565b949350505050565b7f435249544943414c3a20546869732064657669636520646f6573206e6f74206560008201527f78697374206f6e2074686520626c6f636b636861696e21000000000000000000602082015250565b6000612e5a603783612275565b9150612e6582612dfe565b604082019050919050565b60006020820190508181036000830152612e8981612e4d565b9050919050565b7f4e6f7420617574686f72697a6564210000000000000000000000000000000000600082015250565b6000612ec6600f83612275565b9150612ed182612e90565b602082019050919050565b60006020820190508181036000830152612ef581612eb9565b9050919050565b6000602082019050612f1160008301846128f2565b92915050565b7f435249544943414c3a20417373657420697320666c61676765642053544f4c4560008201527f4e2e205472616e7366657220626c6f636b65642e000000000000000000000000602082015250565b6000612f73603483612275565b9150612f7e82612f17565b604082019050919050565b60006020820190508181036000830152612fa281612f66565b9050919050565b600081519050919050565b600082825260208201905092915050565b6000612fd082612fa9565b612fda8185612fb4565b9350612fea818560208601612286565b612ff3816122b0565b840191505092915050565b600060808201905061301360008301876123b1565b61302060208301866123b1565b61302d60408301856126a3565b818103606083015261303f8184612fc5565b905095945050505050565b600081519050613059816121db565b92915050565b600060208284031215613075576130746121a5565b5b60006130838482850161304a565b91505092915050565b600061309882856129f8565b91506130a482846129f8565b91508190509392505050565b60006040820190506130c560008301856123b1565b6130d260208301846126a3565b9392505050565b7f4e487b7100000000000000000000000000000000000000000000000000000000600052601260045260246000fdfea2646970667358221220088937bb0552f5818f80d6d248b8241e701249eb86bd8e4f6e6a929607e32d2364736f6c63430008140033",
  "linkReferences": {},
  "deployedLinkReferences": {}
}