{
  "_format": "hh-sol-artifact-1",
  "contractName": "AssetGuard",
  "sourceName": "contracts/AssetGuard.sol",
  "abi": [
    {
      "inputs": [],
      "stateMutability": "nonpayable",
      "type": "constructor"
    },
    {
      "inputs": [
        {
          "internalType": "address",
          "name": "sender",
          "type": "address"
        },
        {
          "internalType": "uint256",
          "name": "tokenId",
          "type": "uint256"
        },
        {
          "internalType": "address",
          "name": "owner",
          "type": "address"
        }
      ],
      "name": "ERC721IncorrectOwner",
      "type": "error"
    },
    {
      "inputs": [
        {
          "internalType": "address",
          "name": "operator",
          "type": "address"
        },
        {
          "internalType": "uint256",
          "name": "tokenId",
          "type": "uint256"
        }
      ],
      "name": "ERC721InsufficientApproval",
      "type": "error"
    },
    {
      "inputs": [
        {
          "internalType": "address",
          "name": "approver",
          "type": "address"
        }
      ],
      "name": "ERC721InvalidApprover",
      "type": "error"
    },
    {
      "inputs": [
        {
          "internalType": "address",
          "name": "operator",
          "type": "address"
        }
      ],
      "name": "ERC721InvalidOperator",
      "type": "error"
    },
    {
      "inputs": [
        {
          "internalType": "address",
          "name": "owner",
          "type": "address"
        }
      ],
      "name": "ERC721InvalidOwner",
      "type": "error"
    },
    {
      "inputs": [
        {
          "internalType": "address",
          "name": "receiver",
          "type": "address"
        }
      ],
      "name": "ERC721InvalidReceiver",
      "type": "error"
    },
    {
      "inputs": [
        {
          "internalType": "address",
          "name": "sender",
          "type": "address"
        }
      ],
      "name": "ERC721InvalidSender",
      "type": "error"
    },
    {
      "inputs": [
        {
          "internalType": "uint256",
          "name": "tokenId",
          "type": "uint256"
        }
      ],
      "name": "ERC721NonexistentToken",
      "type": "error"
    },
    {
      "inputs": [
        {
          "internalType": "address",
          "name": "owner",
          "type": "address"
        }
      ],
      "name": "OwnableInvalidOwner",
      "type": "error"
    },
    {
      "inputs": [
        {
          "internalType": "address",
          "name": "account",
          "type": "address"
        }
      ],
      "name": "OwnableUnauthorizedAccount",
      "type": "error"
    },
    {
      "anonymous": false,
      "inputs": [
        {
          "indexed": true,
          "internalType": "address",
          "name": "owner",
          "type": "address"
        },
        {
          "indexed": true,
          "internalType": "address",
          "name": "approved",
          "type": "address"
        },
        {
          "indexed": true,
          "internalType": "uint256",
          "name": "tokenId",
          "type": "uint256"
        }
      ],
      "name": "Approval",
      "type": "event"
    },
    {
      "anonymous": false,
      "inputs": [
        {
          "indexed": true,
          "internalType": "address",
          "name": "owner",
          "type": "address"
        },
        {
          "indexed": true,
          "internalType": "address",
          "name": "operator",
          "type": "address"
        },
        {
          "indexed": false,
          "internalType": "bool",
          "name": "approved",
          "type": "bool"
        }
      ],
      "name": "ApprovalForAll",
      "type": "event"
    },
    {
      "anonymous": false,
      "inputs": [
        {
          "indexed": false,
          "internalType": "uint256",
          "name": "_fromTokenId",
          "type": "uint256"
        },
        {
          "indexed": false,
          "internalType": "uint256",
          "name": "_toTokenId",
          "type": "uint256"
        }
      ],
      "name": "BatchMetadataUpdate",
      "type": "event"
    },
    {
      "anonymous": false,
      "inputs": [
        {
          "indexed": true,
          "internalType": "uint256",
          "name": "tokenId",
          "type": "uint256"
        },
        {
          "indexed": false,
          "internalType": "enum AssetGuard.Status",
          "name": "status",
          "type": "uint8"
        }
      ],
      "name": "ItemReported",
      "type": "event"
    },
    {
      "anonymous": false,
      "inputs": [
        {
          "indexed": false,
          "internalType": "uint256",
          "name": "_tokenId",
          "type": "uint256"
        }
      ],
      "name": "MetadataUpdate",
      "type": "event"
    },
    {
      "anonymous": false,
      "inputs": [
        {
          "indexed": true,
          "internalType": "address",
          "name": "previousOwner",
          "type": "address"
        },
        {
          "indexed": true,
          "internalType": "address",
          "name": "newOwner",
          "type": "address"
        }
      ],
      "name": "OwnershipTransferred",
      "type": "event"
    },
    {
      "anonymous": false,
      "inputs": [
        {
          "indexed": true,
          "internalType": "address",
          "name": "from",
          "type": "address"
        },
        {
          "indexed": true,
          "internalType": "address",
          "name": "to",
          "type": "address"
        },
        {
          "indexed": true,
          "internalType": "uint256",
          "name": "tokenId",
          "type": "uint256"
        }
      ],
      "name": "Transfer",
      "type": "event"
    },
    {
      "inputs": [
        {
          "internalType": "address",
          "name": "relayer",
          "type": "address"
        }
      ],
      "name": "addRelayer",
      "outputs": [],
      "stateMutability": "nonpayable",
      "type": "function"
    },
    {
      "inputs": [
        {
          "internalType": "address",
          "name": "to",
          "type": "address"
        },
        {
          "internalType": "uint256",
          "name": "tokenId",
          "type": "uint256"
        }
      ],
      "name": "approve",
      "outputs": [],
      "stateMutability": "nonpayable",
      "type": "function"
    },
    {
      "inputs": [
        {
          "internalType": "address",
          "name": "",
          "type": "address"
        }
      ],
      "name": "approvedRelayers",
      "outputs": [
        {
          "internalType": "bool",
          "name": "",
          "type": "bool"
        }
      ],
      "stateMutability": "view",
      "type": "function"
    },
    {
      "inputs": [
        {
          "internalType": "address",
          "name": "owner",
          "type": "address"
        }
      ],
      "name": "balanceOf",
      "outputs": [
        {
          "internalType": "uint256",
          "name": "",
          "type": "uint256"
        }
      ],
      "stateMutability": "view",
      "type": "function"
    },
    {
      "inputs": [
        {
          "internalType": "uint256",
          "name": "tokenId",
          "type": "uint256"
        }
      ],
      "name": "getApproved",
      "outputs": [
        {
          "internalType": "address",
          "name": "",
          "type": "address"
        }
      ],
      "stateMutability": "view",
      "type": "function"
    },
    {
      "inputs": [
        {
          "internalType": "address",
          "name": "owner",
          "type": "address"
        },
        {
          "internalType": "address",
          "name": "operator",
          "type": "address"
        }
      ],
      "name": "isApprovedForAll",
      "outputs": [
        {
          "internalType": "bool",
          "name": "",
          "type": "bool"
        }
      ],
      "stateMutability": "view",
      "type": "function"
    },
    {
      "inputs": [
        {
          "internalType": "uint256",
          "name": "",
          "type": "uint256"
        }
      ],
      "name": "items",
      "outputs": [
        {
          "internalType": "string",
          "name": "serialNumber",
          "type": "string"
        },
        {
          "internalType": "enum AssetGuard.Status",
          "name": "status",
          "type": "uint8"
        },
        {
          "internalType": "uint256",
          "name": "reportDate",
          "type": "uint256"
        },
        {
          "internalType": "bool",
          "name": "isMinted",
          "type": "bool"
        }
      ],
      "stateMutability": "view",
      "type": "function"
    },
    {
      "inputs": [
        {
          "internalType": "address",
          "name": "to",
          "type": "address"
        },
        {
          "internalType": "string",
          "name": "serial",
          "type": "string"
        },
        {
          "internalType": "string",
          "name": "uri",
          "type": "string"
        }
      ],
      "name": "manufacturerMint",
      "outputs": [],
      "stateMutability": "nonpayable",
      "type": "function"
    },
    {
      "inputs": [],
      "name": "name",
      "outputs": [
        {
          "internalType": "string",
          "name": "",
          "type": "string"
        }
      ],
      "stateMutability": "view",
      "type": "function"
    },
    {
      "inputs": [],
      "name": "owner",
      "outputs": [
        {
          "internalType": "address",
          "name": "",
          "type": "address"
        }
      ],
      "stateMutability": "view",
      "type": "function"
    },
    {
      "inputs": [
        {
          "internalType": "uint256",
          "name": "tokenId",
          "type": "uint256"
        }
      ],
      "name": "ownerOf",
      "outputs": [
        {
          "internalType": "address",
          "name": "",
          "type": "address"
        }
      ],
      "stateMutability": "view",
      "type": "function"
    },
    {
      "inputs": [],
      "name": "renounceOwnership",
      "outputs": [],
      "stateMutability": "nonpayable",
      "type": "function"
    },
    {
      "inputs": [
        {
          "internalType": "uint256",
          "name": "tokenId",
          "type": "uint256"
        }
      ],
      "name": "reportRecovered",
      "outputs": [],
      "stateMutability": "nonpayable",
      "type": "function"
    },
    {
      "inputs": [
        {
          "internalType": "uint256",
          "name": "tokenId",
          "type": "uint256"
        }
      ],
      "name": "reportStolen",
      "outputs": [],
      "stateMutability": "nonpayable",
      "type": "function"
    },
    {
      "inputs": [
        {
          "internalType": "address",
          "name": "from",
          "type": "address"
        },
        {
          "internalType": "address",
          "name": "to",
          "type": "address"
        },
        {
          "internalType": "uint256",
          "name": "tokenId",
          "type": "uint256"
        }
      ],
      "name": "safeTransferFrom",
      "outputs": [],
      "stateMutability": "nonpayable",
      "type": "function"
    },
    {
      "inputs": [
        {
          "internalType": "address",
          "name": "from",
          "type": "address"
        },
        {
          "internalType": "address",
          "name": "to",
          "type": "address"
        },
        {
          "internalType": "uint256",
          "name": "tokenId",
          "type": "uint256"
        },
        {
          "internalType": "bytes",
          "name": "data",
          "type": "bytes"
        }
      ],
      "name": "safeTransferFrom",
      "outputs": [],
      "stateMutability": "nonpayable",
      "type": "function"
    },
    {
      "inputs": [
        {
          "internalType": "string",
          "name": "",
          "type": "string"
        }
      ],
      "name": "serialExists",
      "outputs": [
        {
          "internalType": "bool",
          "name": "",
          "type": "bool"
        }
      ],
      "stateMutability": "view",
      "type": "function"
    },
    {
      "inputs": [
        {
          "internalType": "string",
          "name": "",
          "type": "string"
        }
      ],
      "name": "serialToTokenId",
      "outputs": [
        {
          "internalType": "uint256",
          "name": "",
          "type": "uint256"
        }
      ],
      "stateMutability": "view",
      "type": "function"
    },
    {
      "inputs": [
        {
          "internalType": "address",
          "name": "operator",
          "type": "address"
        },
        {
          "internalType": "bool",
          "name": "approved",
          "type": "bool"
        }
      ],
      "name": "setApprovalForAll",
      "outputs": [],
      "stateMutability": "nonpayable",
      "type": "function"
    },
    {
      "inputs": [
        {
          "internalType": "bytes4",
          "name": "interfaceId",
          "type": "bytes4"
        }
      ],
      "name": "supportsInterface",
      "outputs": [
        {
          "internalType": "bool",
          "name": "",
          "type": "bool"
        }
      ],
      "stateMutability": "view",
      "type": "function"
    },
    {
      "inputs": [],
      "name": "symbol",
      "outputs": [
        {
          "internalType": "string",
          "name": "",
          "type": "string"
        }
      ],
      "stateMutability": "view",
      "type": "function"
    },
    {
      "inputs": [
        {
          "internalType": "uint256",
          "name": "tokenId",
          "type": "uint256"
        }
      ],
      "name": "tokenURI",
      "outputs": [
        {
          "internalType": "string",
          "name": "",
          "type": "string"
        }
      ],
      "stateMutability": "view",
      "type": "function"
    },
    {
      "inputs": [
        {
          "internalType": "address",
          "name": "from",
          "type": "address"
        },
        {
          "internalType": "address",
          "name": "to",
          "type": "address"
        },
        {
          "internalType": "uint256",
          "name": "tokenId",
          "type": "uint256"
        }
      ],
      "name": "transferFrom",
      "outputs": [],
      "stateMutability": "nonpayable",
      "type": "function"
    },
    {
      "inputs": [
        {
          "internalType": "address",
          "name": "newOwner",
          "type": "address"
        }
      ],
      "name": "transferOwnership",
      "outputs": [],
      "stateMutability": "nonpayable",
      "type": "function"
    }
  ],
  "bytecode": "0x60806040523480156200001157600080fd5b50336040518060400160405280600a81526020017f41737365744775617264000000000000000000000000000000000000000000008152506040518060400160405280600381526020017f4147440000000000000000000000000000000000000000000000000000000000815250816000908162000090919062000472565b508060019081620000a2919062000472565b505050600073ffffffffffffffffffffffffffffffffffffffff168173ffffffffffffffffffffffffffffffffffffffff16036200011a5760006040517f1e4fbdf70000000000000000000000000000000000000000000000000000000081526004016200011191906200059e565b60405180910390fd5b6200012b816200013260201b60201c565b50620005bb565b6000600760009054906101000a900473ffffffffffffffffffffffffffffffffffffffff16905081600760006101000a81548173ffffffffffffffffffffffffffffffffffffffff021916908373ffffffffffffffffffffffffffffffffffffffff1602179055508173ffffffffffffffffffffffffffffffffffffffff168173ffffffffffffffffffffffffffffffffffffffff167f8be0079c531659141344cd1fd0a4f28419497f9722a3daafe3b4186f6b6457e060405160405180910390a35050565b600081519050919050565b7f4e487b7100000000000000000000000000000000000000000000000000000000600052604160045260246000fd5b7f4e487b7100000000000000000000000000000000000000000000000000000000600052602260045260246000fd5b600060028204905060018216806200027a57607f821691505b60208210810362000290576200028f62000232565b5b50919050565b60008190508160005260206000209050919050565b60006020601f8301049050919050565b600082821b905092915050565b600060088302620002fa7fffffffffffffffffffffffffffffffffffffffffffffffffffffffffffffffff82620002bb565b620003068683620002bb565b95508019841693508086168417925050509392505050565b6000819050919050565b6000819050919050565b6000620003536200034d62000347846200031e565b62000328565b6200031e565b9050919050565b6000819050919050565b6200036f8362000332565b620003876200037e826200035a565b848454620002c8565b825550505050565b600090565b6200039e6200038f565b620003ab81848462000364565b505050565b5b81811015620003d357620003c760008262000394565b600181019050620003b1565b5050565b601f8211156200042257620003ec8162000296565b620003f784620002ab565b8101602085101562000407578190505b6200041f6200041685620002ab565b830182620003b0565b50505b505050565b600082821c905092915050565b6000620004476000198460080262000427565b1980831691505092915050565b600062000462838362000434565b9150826002028217905092915050565b6200047d82620001f8565b67ffffffffffffffff81111562000499576200049862000203565b5b620004a5825462000261565b620004b2828285620003d7565b600060209050601f831160018114620004ea5760008415620004d5578287015190505b620004e1858262000454565b86555062000551565b601f198416620004fa8662000296565b60005b828110156200052457848901518255600182019150602085019450602081019050620004fd565b8683101562000544578489015162000540601f89168262000434565b8355505b6001600288020188555050505b505050505050565b600073ffffffffffffffffffffffffffffffffffffffff82169050919050565b6000620005868262000559565b9050919050565b620005988162000579565b82525050565b6000602082019050620005b560008301846200058d565b92915050565b61340a80620005cb6000396000f3fe608060405234801561001057600080fd5b50600436106101585760003560e01c8063715018a6116100c3578063b88d4fde1161007c578063b88d4fde146103d5578063bfb231d2146103f1578063c87b56dd14610424578063dd39f00d14610454578063e985e9c514610470578063f2fde38b146104a057610158565b8063715018a6146103135780638cba8b6a1461031d5780638da5cb5b1461034d5780638ea090af1461036b57806395d89b411461039b578063a22cb465146103b957610158565b806323b872dd1161011557806323b872dd1461022f578063389a032a1461024b57806342842e0e1461026757806359163635146102835780636352211e146102b357806370a08231146102e357610158565b806301ffc9a71461015d57806302ea14411461018d57806306fdde03146101a9578063081812fc146101c7578063095ea7b3146101f75780631b41aab314610213575b600080fd5b61017760048036038101906101729190612467565b6104bc565b60405161018491906124af565b60405180910390f35b6101a760048036038101906101a29190612500565b6104ce565b005b6101b1610707565b6040516101be91906125bd565b60405180910390f35b6101e160048036038101906101dc9190612500565b610799565b6040516101ee9190612620565b60405180910390f35b610211600480360381019061020c9190612667565b6107b5565b005b61022d600480360381019061022891906127dc565b6107cb565b005b61024960048036038101906102449190612867565b61098c565b005b61026560048036038101906102609190612500565b610a8e565b005b610281600480360381019061027c9190612867565b610c58565b005b61029d600480360381019061029891906128ba565b610c78565b6040516102aa9190612912565b60405180910390f35b6102cd60048036038101906102c89190612500565b610ca6565b6040516102da9190612620565b60405180910390f35b6102fd60048036038101906102f8919061292d565b610cb8565b60405161030a9190612912565b60405180910390f35b61031b610d72565b005b6103376004803603810190610332919061292d565b610d86565b60405161034491906124af565b60405180910390f35b610355610da6565b6040516103629190612620565b60405180910390f35b610385600480360381019061038091906128ba565b610dd0565b60405161039291906124af565b60405180910390f35b6103a3610e06565b6040516103b091906125bd565b60405180910390f35b6103d360048036038101906103ce9190612986565b610e98565b005b6103ef60048036038101906103ea9190612a67565b610eae565b005b61040b60048036038101906104069190612500565b610ed3565b60405161041b9493929190612b61565b60405180910390f35b61043e60048036038101906104399190612500565b610fa5565b60405161044b91906125bd565b60405180910390f35b61046e6004803603810190610469919061292d565b610fb7565b005b61048a60048036038101906104859190612bad565b61101a565b60405161049791906124af565b60405180910390f35b6104ba60048036038101906104b5919061292d565b6110ae565b005b60006104c782611134565b9050919050565b600115156009600083815260200190815260200160002060030160009054906101000a900460ff16151514610538576040517f08c379a000000000000000000000000000000000000000000000000000000000815260040161052f90612c5f565b60405180910390fd5b61054181610ca6565b73ffffffffffffffffffffffffffffffffffffffff163373ffffffffffffffffffffffffffffffffffffffff1614806105c35750600c60003373ffffffffffffffffffffffffffffffffffffffff1673ffffffffffffffffffffffffffffffffffffffff16815260200190815260200160002060009054906101000a900460ff165b610602576040517f08c379a00000000000000000000000000000000000000000000000000000000081526004016105f990612ccb565b60405180910390fd5b6001600281111561061657610615612aea565b5b6009600083815260200190815260200160002060010160009054906101000a900460ff16600281111561064c5761064b612aea565b5b1461068c576040517f08c379a000000000000000000000000000000000000000000000000000000000815260040161068390612d37565b60405180910390fd5b60026009600083815260200190815260200160002060010160006101000a81548160ff021916908360028111156106c6576106c5612aea565b5b0217905550807f8a72e066c04aefe8f8a48306449441156991f023f739df3987292ed4f997416860026040516106fc9190612d57565b60405180910390a250565b60606000805461071690612da1565b80601f016020809104026020016040519081016040528092919081815260200182805461074290612da1565b801561078f5780601f106107645761010080835404028352916020019161078f565b820191906000526020600020905b81548152906001019060200180831161077257829003601f168201915b5050505050905090565b60006107a482611195565b506107ae8261121d565b9050919050565b6107c782826107c261125a565b611262565b5050565b6107d3611274565b600b826040516107e39190612e0e565b908152602001604051809103902060009054906101000a900460ff161561083f576040517f08c379a000000000000000000000000000000000000000000000000000000000815260040161083690612e97565b60405180910390fd5b60006008600081548092919061085490612ee6565b91905055905061086484826112fb565b61086e8183611319565b60405180608001604052808481526020016000600281111561089357610892612aea565b5b815260200160008152602001600115158152506009600083815260200190815260200160002060008201518160000190816108ce91906130da565b5060208201518160010160006101000a81548160ff021916908360028111156108fa576108f9612aea565b5b02179055506040820151816002015560608201518160030160006101000a81548160ff02191690831515021790555090505080600a8460405161093d9190612e0e565b9081526020016040518091039020819055506001600b846040516109619190612e0e565b908152602001604051809103902060006101000a81548160ff02191690831515021790555050505050565b600073ffffffffffffffffffffffffffffffffffffffff168273ffffffffffffffffffffffffffffffffffffffff16036109fe5760006040517f64a0ae920000000000000000000000000000000000000000000000000000000081526004016109f59190612620565b60405180910390fd5b6000610a128383610a0d61125a565b611375565b90508373ffffffffffffffffffffffffffffffffffffffff168173ffffffffffffffffffffffffffffffffffffffff1614610a88578382826040517f64283d7b000000000000000000000000000000000000000000000000000000008152600401610a7f939291906131ac565b60405180910390fd5b50505050565b600115156009600083815260200190815260200160002060030160009054906101000a900460ff16151514610af8576040517f08c379a0000000000000000000000000000000000000000000000000000000008152600401610aef90612c5f565b60405180910390fd5b610b0181610ca6565b73ffffffffffffffffffffffffffffffffffffffff163373ffffffffffffffffffffffffffffffffffffffff161480610b835750600c60003373ffffffffffffffffffffffffffffffffffffffff1673ffffffffffffffffffffffffffffffffffffffff16815260200190815260200160002060009054906101000a900460ff165b610bc2576040517f08c379a0000000000000000000000000000000000000000000000000000000008152600401610bb990612ccb565b60405180910390fd5b60016009600083815260200190815260200160002060010160006101000a81548160ff02191690836002811115610bfc57610bfb612aea565b5b0217905550426009600083815260200190815260200160002060020181905550807f8a72e066c04aefe8f8a48306449441156991f023f739df3987292ed4f99741686001604051610c4d9190612d57565b60405180910390a250565b610c7383838360405180602001604052806000815250610eae565b505050565b600a818051602081018201805184825260208301602085012081835280955050505050506000915090505481565b6000610cb182611195565b9050919050565b60008073ffffffffffffffffffffffffffffffffffffffff168273ffffffffffffffffffffffffffffffffffffffff1603610d2b5760006040517f89c62b64000000000000000000000000000000000000000000000000000000008152600401610d229190612620565b60405180910390fd5b600360008373ffffffffffffffffffffffffffffffffffffffff1673ffffffffffffffffffffffffffffffffffffffff168152602001908152602001600020549050919050565b610d7a611274565b610d846000611457565b565b600c6020528060005260406000206000915054906101000a900460ff1681565b6000600760009054906101000a900473ffffffffffffffffffffffffffffffffffffffff16905090565b600b818051602081018201805184825260208301602085012081835280955050505050506000915054906101000a900460ff1681565b606060018054610e1590612da1565b80601f0160208091040260200160405190810160405280929190818152602001828054610e4190612da1565b8015610e8e5780601f10610e6357610100808354040283529160200191610e8e565b820191906000526020600020905b815481529060010190602001808311610e7157829003601f168201915b5050505050905090565b610eaa610ea361125a565b838361151d565b5050565b610eb984848461098c565b610ecd610ec461125a565b8585858561168c565b50505050565b6009602052806000526040600020600091509050806000018054610ef690612da1565b80601f0160208091040260200160405190810160405280929190818152602001828054610f2290612da1565b8015610f6f5780601f10610f4457610100808354040283529160200191610f6f565b820191906000526020600020905b815481529060010190602001808311610f5257829003601f168201915b5050505050908060010160009054906101000a900460ff16908060020154908060030160009054906101000a900460ff16905084565b6060610fb08261183d565b9050919050565b610fbf611274565b6001600c60008373ffffffffffffffffffffffffffffffffffffffff1673ffffffffffffffffffffffffffffffffffffffff16815260200190815260200160002060006101000a81548160ff02191690831515021790555050565b6000600560008473ffffffffffffffffffffffffffffffffffffffff1673ffffffffffffffffffffffffffffffffffffffff16815260200190815260200160002060008373ffffffffffffffffffffffffffffffffffffffff1673ffffffffffffffffffffffffffffffffffffffff16815260200190815260200160002060009054906101000a900460ff16905092915050565b6110b6611274565b600073ffffffffffffffffffffffffffffffffffffffff168173ffffffffffffffffffffffffffffffffffffffff16036111285760006040517f1e4fbdf700000000000000000000000000000000000000000000000000000000815260040161111f9190612620565b60405180910390fd5b61113181611457565b50565b6000634906490660e01b7bffffffffffffffffffffffffffffffffffffffffffffffffffffffff1916827bffffffffffffffffffffffffffffffffffffffffffffffffffffffff1916148061118e575061118d82611950565b5b9050919050565b6000806111a183611a32565b9050600073ffffffffffffffffffffffffffffffffffffffff168173ffffffffffffffffffffffffffffffffffffffff160361121457826040517f7e27328900000000000000000000000000000000000000000000000000000000815260040161120b9190612912565b60405180910390fd5b80915050919050565b60006004600083815260200190815260200160002060009054906101000a900473ffffffffffffffffffffffffffffffffffffffff169050919050565b600033905090565b61126f8383836001611a6f565b505050565b61127c61125a565b73ffffffffffffffffffffffffffffffffffffffff1661129a610da6565b73ffffffffffffffffffffffffffffffffffffffff16146112f9576112bd61125a565b6040517f118cdaa70000000000000000000000000000000000000000000000000000000081526004016112f09190612620565b60405180910390fd5b565b611315828260405180602001604052806000815250611c34565b5050565b8060066000848152602001908152602001600020908161133991906130da565b507ff8e1a15aba9398e019f0b49df1a4fde98ee17ae345cb5f6b5e2c27f5033e8ce7826040516113699190612912565b60405180910390a15050565b60008061138184611a32565b9050600073ffffffffffffffffffffffffffffffffffffffff168173ffffffffffffffffffffffffffffffffffffffff161461144257600160028111156113cb576113ca612aea565b5b6009600086815260200190815260200160002060010160009054906101000a900460ff16600281111561140157611400612aea565b5b03611441576040517f08c379a000000000000000000000000000000000000000000000000000000000815260040161143890613255565b60405180910390fd5b5b61144d858585611c58565b9150509392505050565b6000600760009054906101000a900473ffffffffffffffffffffffffffffffffffffffff16905081600760006101000a81548173ffffffffffffffffffffffffffffffffffffffff021916908373ffffffffffffffffffffffffffffffffffffffff1602179055508173ffffffffffffffffffffffffffffffffffffffff168173ffffffffffffffffffffffffffffffffffffffff167f8be0079c531659141344cd1fd0a4f28419497f9722a3daafe3b4186f6b6457e060405160405180910390a35050565b600073ffffffffffffffffffffffffffffffffffffffff168273ffffffffffffffffffffffffffffffffffffffff160361158e57816040517f5b08ba180000000000000000000000000000000000000000000000000000000081526004016115859190612620565b60405180910390fd5b80600560008573ffffffffffffffffffffffffffffffffffffffff1673ffffffffffffffffffffffffffffffffffffffff16815260200190815260200160002060008473ffffffffffffffffffffffffffffffffffffffff1673ffffffffffffffffffffffffffffffffffffffff16815260200190815260200160002060006101000a81548160ff0219169083151502179055508173ffffffffffffffffffffffffffffffffffffffff168373ffffffffffffffffffffffffffffffffffffffff167f17307eab39ab6107e8899845ad3d59bd9653f200f220920489ca2b5937696c318360405161167f91906124af565b60405180910390a3505050565b60008373ffffffffffffffffffffffffffffffffffffffff163b1115611836578273ffffffffffffffffffffffffffffffffffffffff1663150b7a02868685856040518563ffffffff1660e01b81526004016116eb94939291906132ca565b6020604051808303816000875af192505050801561172757506040513d601f19601f82011682018060405250810190611724919061332b565b60015b6117ab573d8060008114611757576040519150601f19603f3d011682016040523d82523d6000602084013e61175c565b606091505b5060008151036117a357836040517f64a0ae9200000000000000000000000000000000000000000000000000000000815260040161179a9190612620565b60405180910390fd5b805160208201fd5b63150b7a0260e01b7bffffffffffffffffffffffffffffffffffffffffffffffffffffffff1916817bffffffffffffffffffffffffffffffffffffffffffffffffffffffff19161461183457836040517f64a0ae9200000000000000000000000000000000000000000000000000000000815260040161182b9190612620565b60405180910390fd5b505b5050505050565b606061184882611195565b50600060066000848152602001908152602001600020805461186990612da1565b80601f016020809104026020016040519081016040528092919081815260200182805461189590612da1565b80156118e25780601f106118b7576101008083540402835291602001916118e2565b820191906000526020600020905b8154815290600101906020018083116118c557829003601f168201915b5050505050905060006118f3611e72565b9050600081510361190857819250505061194b565b60008251111561193d578082604051602001611925929190613358565b6040516020818303038152906040529250505061194b565b61194684611e89565b925050505b919050565b60007f80ac58cd000000000000000000000000000000000000000000000000000000007bffffffffffffffffffffffffffffffffffffffffffffffffffffffff1916827bffffffffffffffffffffffffffffffffffffffffffffffffffffffff19161480611a1b57507f5b5e139f000000000000000000000000000000000000000000000000000000007bffffffffffffffffffffffffffffffffffffffffffffffffffffffff1916827bffffffffffffffffffffffffffffffffffffffffffffffffffffffff1916145b80611a2b5750611a2a82611ef2565b5b9050919050565b60006002600083815260200190815260200160002060009054906101000a900473ffffffffffffffffffffffffffffffffffffffff169050919050565b8080611aa85750600073ffffffffffffffffffffffffffffffffffffffff168273ffffffffffffffffffffffffffffffffffffffff1614155b15611bdc576000611ab884611195565b9050600073ffffffffffffffffffffffffffffffffffffffff168373ffffffffffffffffffffffffffffffffffffffff1614158015611b2357508273ffffffffffffffffffffffffffffffffffffffff168173ffffffffffffffffffffffffffffffffffffffff1614155b8015611b365750611b34818461101a565b155b15611b7857826040517fa9fbf51f000000000000000000000000000000000000000000000000000000008152600401611b6f9190612620565b60405180910390fd5b8115611bda57838573ffffffffffffffffffffffffffffffffffffffff168273ffffffffffffffffffffffffffffffffffffffff167f8c5be1e5ebec7d5bd14f71427d1e84f3dd0314c0f7b2291e5b200ac8c7c3b92560405160405180910390a45b505b836004600085815260200190815260200160002060006101000a81548173ffffffffffffffffffffffffffffffffffffffff021916908373ffffffffffffffffffffffffffffffffffffffff16021790555050505050565b611c3e8383611f5c565b611c53611c4961125a565b600085858561168c565b505050565b600080611c6484611a32565b9050600073ffffffffffffffffffffffffffffffffffffffff168373ffffffffffffffffffffffffffffffffffffffff1614611ca657611ca5818486612055565b5b600073ffffffffffffffffffffffffffffffffffffffff168173ffffffffffffffffffffffffffffffffffffffff1614611d3757611ce8600085600080611a6f565b6001600360008373ffffffffffffffffffffffffffffffffffffffff1673ffffffffffffffffffffffffffffffffffffffff168152602001908152602001600020600082825403925050819055505b600073ffffffffffffffffffffffffffffffffffffffff168573ffffffffffffffffffffffffffffffffffffffff1614611dba576001600360008773ffffffffffffffffffffffffffffffffffffffff1673ffffffffffffffffffffffffffffffffffffffff168152602001908152602001600020600082825401925050819055505b846002600086815260200190815260200160002060006101000a81548173ffffffffffffffffffffffffffffffffffffffff021916908373ffffffffffffffffffffffffffffffffffffffff160217905550838573ffffffffffffffffffffffffffffffffffffffff168273ffffffffffffffffffffffffffffffffffffffff167fddf252ad1be2c89b69c2b068fc378daa952ba7f163c4a11628f55a4df523b3ef60405160405180910390a4809150509392505050565b606060405180602001604052806000815250905090565b6060611e9482611195565b506000611e9f611e72565b90506000815111611ebf5760405180602001604052806000815250611eea565b80611ec984612119565b604051602001611eda929190613358565b6040516020818303038152906040525b915050919050565b60007f01ffc9a7000000000000000000000000000000000000000000000000000000007bffffffffffffffffffffffffffffffffffffffffffffffffffffffff1916827bffffffffffffffffffffffffffffffffffffffffffffffffffffffff1916149050919050565b600073ffffffffffffffffffffffffffffffffffffffff168273ffffffffffffffffffffffffffffffffffffffff1603611fce5760006040517f64a0ae92000000000000000000000000000000000000000000000000000000008152600401611fc59190612620565b60405180910390fd5b6000611fdc83836000611375565b9050600073ffffffffffffffffffffffffffffffffffffffff168173ffffffffffffffffffffffffffffffffffffffff16146120505760006040517f73c6ac6e0000000000000000000000000000000000000000000000000000000081526004016120479190612620565b60405180910390fd5b505050565b6120608383836121e7565b61211457600073ffffffffffffffffffffffffffffffffffffffff168373ffffffffffffffffffffffffffffffffffffffff16036120d557806040517f7e2732890000000000000000000000000000000000000000000000000000000081526004016120cc9190612912565b60405180910390fd5b81816040517f177e802f00000000000000000000000000000000000000000000000000000000815260040161210b92919061337c565b60405180910390fd5b505050565b606060006001612128846122a8565b01905060008167ffffffffffffffff811115612147576121466126b1565b5b6040519080825280601f01601f1916602001820160405280156121795781602001600182028036833780820191505090505b509050600082602083010190505b6001156121dc578080600190039150507f3031323334353637383961626364656600000000000000000000000000000000600a86061a8153600a85816121d0576121cf6133a5565b5b04945060008503612187575b819350505050919050565b60008073ffffffffffffffffffffffffffffffffffffffff168373ffffffffffffffffffffffffffffffffffffffff161415801561229f57508273ffffffffffffffffffffffffffffffffffffffff168473ffffffffffffffffffffffffffffffffffffffff161480612260575061225f848461101a565b5b8061229e57508273ffffffffffffffffffffffffffffffffffffffff166122868361121d565b73ffffffffffffffffffffffffffffffffffffffff16145b5b90509392505050565b600080600090507a184f03e93ff9f4daa797ed6e38ed64bf6a1f0100000000000000008310612306577a184f03e93ff9f4daa797ed6e38ed64bf6a1f01000000000000000083816122fc576122fb6133a5565b5b0492506040810190505b6d04ee2d6d415b85acef81000000008310612343576d04ee2d6d415b85acef81000000008381612339576123386133a5565b5b0492506020810190505b662386f26fc10000831061237257662386f26fc100008381612368576123676133a5565b5b0492506010810190505b6305f5e100831061239b576305f5e1008381612391576123906133a5565b5b0492506008810190505b61271083106123c05761271083816123b6576123b56133a5565b5b0492506004810190505b606483106123e357606483816123d9576123d86133a5565b5b0492506002810190505b600a83106123f2576001810190505b80915050919050565b6000604051905090565b600080fd5b600080fd5b60007fffffffff0000000000000000000000000000000000000000000000000000000082169050919050565b6124448161240f565b811461244f57600080fd5b50565b6000813590506124618161243b565b92915050565b60006020828403121561247d5761247c612405565b5b600061248b84828501612452565b91505092915050565b60008115159050919050565b6124a981612494565b82525050565b60006020820190506124c460008301846124a0565b92915050565b6000819050919050565b6124dd816124ca565b81146124e857600080fd5b50565b6000813590506124fa816124d4565b92915050565b60006020828403121561251657612515612405565b5b6000612524848285016124eb565b91505092915050565b600081519050919050565b600082825260208201905092915050565b60005b8381101561256757808201518184015260208101905061254c565b60008484015250505050565b6000601f19601f8301169050919050565b600061258f8261252d565b6125998185612538565b93506125a9818560208601612549565b6125b281612573565b840191505092915050565b600060208201905081810360008301526125d78184612584565b905092915050565b600073ffffffffffffffffffffffffffffffffffffffff82169050919050565b600061260a826125df565b9050919050565b61261a816125ff565b82525050565b60006020820190506126356000830184612611565b92915050565b612644816125ff565b811461264f57600080fd5b50565b6000813590506126618161263b565b92915050565b6000806040838503121561267e5761267d612405565b5b600061268c85828601612652565b925050602061269d858286016124eb565b9150509250929050565b600080fd5b600080fd5b7f4e487b7100000000000000000000000000000000000000000000000000000000600052604160045260246000fd5b6126e982612573565b810181811067ffffffffffffffff82111715612708576127076126b1565b5b80604052505050565b600061271b6123fb565b905061272782826126e0565b919050565b600067ffffffffffffffff821115612747576127466126b1565b5b61275082612573565b9050602081019050919050565b82818337600083830152505050565b600061277f61277a8461272c565b612711565b90508281526020810184848401111561279b5761279a6126ac565b5b6127a684828561275d565b509392505050565b600082601f8301126127c3576127c26126a7565b5b81356127d384826020860161276c565b91505092915050565b6000806000606084860312156127f5576127f4612405565b5b600061280386828701612652565b935050602084013567ffffffffffffffff8111156128245761282361240a565b5b612830868287016127ae565b925050604084013567ffffffffffffffff8111156128515761285061240a565b5b61285d868287016127ae565b9150509250925092565b6000806000606084860312156128805761287f612405565b5b600061288e86828701612652565b935050602061289f86828701612652565b92505060406128b0868287016124eb565b9150509250925092565b6000602082840312156128d0576128cf612405565b5b600082013567ffffffffffffffff8111156128ee576128ed61240a565b5b6128fa848285016127ae565b91505092915050565b61290c816124ca565b82525050565b60006020820190506129276000830184612903565b92915050565b60006020828403121561294357612942612405565b5b600061295184828501612652565b91505092915050565b61296381612494565b811461296e57600080fd5b50565b6000813590506129808161295a565b92915050565b6000806040838503121561299d5761299c612405565b5b60006129ab85828601612652565b92505060206129bc85828601612971565b9150509250929050565b600067ffffffffffffffff8211156129e1576129e06126b1565b5b6129ea82612573565b9050602081019050919050565b6000612a0a612a05846129c6565b612711565b905082815260208101848484011115612a2657612a256126ac565b5b612a3184828561275d565b509392505050565b600082601f830112612a4e57612a4d6126a7565b5b8135612a5e8482602086016129f7565b91505092915050565b60008060008060808587031215612a8157612a80612405565b5b6000612a8f87828801612652565b9450506020612aa087828801612652565b9350506040612ab1878288016124eb565b925050606085013567ffffffffffffffff811115612ad257612ad161240a565b5b612ade87828801612a39565b91505092959194509250565b7f4e487b7100000000000000000000000000000000000000000000000000000000600052602160045260246000fd5b60038110612b2a57612b29612aea565b5b50565b6000819050612b3b82612b19565b919050565b6000612b4b82612b2d565b9050919050565b612b5b81612b40565b82525050565b60006080820190508181036000830152612b7b8187612584565b9050612b8a6020830186612b52565b612b976040830185612903565b612ba460608301846124a0565b95945050505050565b60008060408385031215612bc457612bc3612405565b5b6000612bd285828601612652565b9250506020612be385828601612652565b9150509250929050565b7f435249544943414c3a20546869732064657669636520646f6573206e6f74206560008201527f78697374206f6e2074686520626c6f636b636861696e21000000000000000000602082015250565b6000612c49603783612538565b9150612c5482612bed565b604082019050919050565b60006020820190508181036000830152612c7881612c3c565b9050919050565b7f4e6f7420617574686f72697a6564210000000000000000000000000000000000600082015250565b6000612cb5600f83612538565b9150612cc082612c7f565b602082019050919050565b60006020820190508181036000830152612ce481612ca8565b9050919050565b7f446576696365206973206e6f742063757272656e746c792073746f6c656e2e00600082015250565b6000612d21601f83612538565b9150612d2c82612ceb565b602082019050919050565b60006020820190508181036000830152612d5081612d14565b9050919050565b6000602082019050612d6c6000830184612b52565b92915050565b7f4e487b7100000000000000000000000000000000000000000000000000000000600052602260045260246000fd5b60006002820490506001821680612db957607f821691505b602082108103612dcc57612dcb612d72565b5b50919050565b600081905092915050565b6000612de88261252d565b612df28185612dd2565b9350612e02818560208601612549565b80840191505092915050565b6000612e1a8284612ddd565b915081905092915050565b7f4572726f723a2053657269616c20616c7265616479207265676973746572656460008201527f2100000000000000000000000000000000000000000000000000000000000000602082015250565b6000612e81602183612538565b9150612e8c82612e25565b604082019050919050565b60006020820190508181036000830152612eb081612e74565b9050919050565b7f4e487b7100000000000000000000000000000000000000000000000000000000600052601160045260246000fd5b6000612ef1826124ca565b91507fffffffffffffffffffffffffffffffffffffffffffffffffffffffffffffffff8203612f2357612f22612eb7565b5b600182019050919050565b60008190508160005260206000209050919050565b60006020601f8301049050919050565b600082821b905092915050565b600060088302612f907fffffffffffffffffffffffffffffffffffffffffffffffffffffffffffffffff82612f53565b612f9a8683612f53565b95508019841693508086168417925050509392505050565b6000819050919050565b6000612fd7612fd2612fcd846124ca565b612fb2565b6124ca565b9050919050565b6000819050919050565b612ff183612fbc565b613005612ffd82612fde565b848454612f60565b825550505050565b600090565b61301a61300d565b613025818484612fe8565b505050565b5b818110156130495761303e600082613012565b60018101905061302b565b5050565b601f82111561308e5761305f81612f2e565b61306884612f43565b81016020851015613077578190505b61308b61308385612f43565b83018261302a565b50505b505050565b600082821c905092915050565b60006130b160001984600802613093565b1980831691505092915050565b60006130ca83836130a0565b9150826002028217905092915050565b6130e38261252d565b67ffffffffffffffff8111156130fc576130fb6126b1565b5b6131068254612da1565b61311182828561304d565b600060209050601f8311600181146131445760008415613132578287015190505b61313c85826130be565b8655506131a4565b601f19841661315286612f2e565b60005b8281101561317a57848901518255600182019150602085019450602081019050613155565b868310156131975784890151613193601f8916826130a0565b8355505b6001600288020188555050505b505050505050565b60006060820190506131c16000830186612611565b6131ce6020830185612903565b6131db6040830184612611565b949350505050565b7f435249544943414c3a20417373657420697320666c61676765642053544f4c4560008201527f4e2e205472616e7366657220626c6f636b65642e000000000000000000000000602082015250565b600061323f603483612538565b915061324a826131e3565b604082019050919050565b6000602082019050818103600083015261326e81613232565b9050919050565b600081519050919050565b600082825260208201905092915050565b600061329c82613275565b6132a68185613280565b93506132b6818560208601612549565b6132bf81612573565b840191505092915050565b60006080820190506132df6000830187612611565b6132ec6020830186612611565b6132f96040830185612903565b818103606083015261330b8184613291565b905095945050505050565b6000815190506133258161243b565b92915050565b60006020828403121561334157613340612405565b5b600061334f84828501613316565b91505092915050565b60006133648285612ddd565b91506133708284612ddd565b91508190509392505050565b60006040820190506133916000830185612611565b61339e6020830184612903565b9392505050565b7f4e487b7100000000000000000000000000000000000000000000000000000000600052601260045260246000fdfea2646970667358221220dc42d2f9091624faefe97b56e86d867f32495a8c6cc07f089a7666495c7bb46364736f6c63430008140033",
  "linkReferences": {},
  "deployedLinkReferences": {}
}