{
  "_format": "hh-sol-artifact-1",
  "contractName": "AssetGuard",
  "sourceName": "contracts/AssetGuard.sol",
  "abi": [
    {
      "inputs": [],
      "stateMutability": "nonpayable",
      "type": "constructor"
    },
    {
      "inputs": [
        {
          "internalType": "address",
          "name": "sender",
          "type": "address"
        },
        {
          "internalType": "uint256",
          "name": "tokenId",
          "type": "uint256"
        },
        {
          "internalType": "address",
          "name": "owner",
          "type": "address"
        }
      ],
      "name": "ERC721IncorrectOwner",
      "type": "error"
    },
    {
      "inputs": [
        {
          "internalType": "address",
          "name": "operator",
          "type": "address"
        },
        {
          "internalType": "uint256",
          "name": "tokenId",
          "type": "uint256"
        }
      ],
      "name": "ERC721InsufficientApproval",
      "type": "error"
    },
    {
      "inputs": [
        {
          "internalType": "address",
          "name": "approver",
          "type": "address"
        }
      ],
      "name": "ERC721InvalidApprover",
      "type": "error"
    },
    {
      "inputs": [
        {
          "internalType": "address",
          "name": "operator",
          "type": "address"
        }
      ],
      "name": "ERC721InvalidOperator",
      "type": "error"
    },
    {
      "inputs": [
        {
          "internalType": "address",
          "name": "owner",
          "type": "address"
        }
      ],
      "name": "ERC721InvalidOwner",
      "type": "error"
    },
    {
      "inputs": [
        {
          "internalType": "address",
          "name": "receiver",
          "type": "address"
        }
      ],
      "name": "ERC721InvalidReceiver",
      "type": "error"
    },
    {
      "inputs": [
        {
          "internalType": "address",
          "name": "sender",
          "type": "address"
        }
      ],
      "name": "ERC721InvalidSender",
      "type": "error"
    },
    {
      "inputs": [
        {
          "internalType": "uint256",
          "name": "tokenId",
          "type": "uint256"
        }
      ],
      "name": "ERC721NonexistentToken",
      "type": "error"
    },
    {
      "inputs": [
        {
          "internalType": "address",
          "name": "owner",
          "type": "address"
        }
      ],
      "name": "OwnableInvalidOwner",
      "type": "error"
    },
    {
      "inputs": [
        {
          "internalType": "address",
          "name": "account",
          "type": "address"
        }
      ],
      "name": "OwnableUnauthorizedAccount",
      "type": "error"
    },
    {
      "anonymous": false,
      "inputs": [
        {
          "indexed": true,
          "internalType": "address",
          "name": "owner",
          "type": "address"
        },
        {
          "indexed": true,
          "internalType": "address",
          "name": "approved",
          "type": "address"
        },
        {
          "indexed": true,
          "internalType": "uint256",
          "name": "tokenId",
          "type": "uint256"
        }
      ],
      "name": "Approval",
      "type": "event"
    },
    {
      "anonymous": false,
      "inputs": [
        {
          "indexed": true,
          "internalType": "address",
          "name": "owner",
          "type": "address"
        },
        {
          "indexed": true,
          "internalType": "address",
          "name": "operator",
          "type": "address"
        },
        {
          "indexed": false,
          "internalType": "bool",
          "name": "approved",
          "type": "bool"
        }
      ],
      "name": "ApprovalForAll",
      "type": "event"
    },
    {
      "anonymous": false,
      "inputs": [
        {
          "indexed": false,
          "internalType": "uint256",
          "name": "_fromTokenId",
          "type": "uint256"
        },
        {
          "indexed": false,
          "internalType": "uint256",
          "name": "_toTokenId",
          "type": "uint256"
        }
      ],
      "name": "BatchMetadataUpdate",
      "type": "event"
    },
    {
      "anonymous": false,
      "inputs": [
        {
          "indexed": true,
          "internalType": "uint256",
          "name": "tokenId",
          "type": "uint256"
        },
        {
          "indexed": false,
          "internalType": "enum AssetGuard.Status",
          "name": "status",
          "type": "uint8"
        }
      ],
      "name": "ItemReported",
      "type": "event"
    },
    {
      "anonymous": false,
      "inputs": [
        {
          "indexed": false,
          "internalType": "uint256",
          "name": "_tokenId",
          "type": "uint256"
        }
      ],
      "name": "MetadataUpdate",
      "type": "event"
    },
    {
      "anonymous": false,
      "inputs": [
        {
          "indexed": true,
          "internalType": "address",
          "name": "previousOwner",
          "type": "address"
        },
        {
          "indexed": true,
          "internalType": "address",
          "name": "newOwner",
          "type": "address"
        }
      ],
      "name": "OwnershipTransferred",
      "type": "event"
    },
    {
      "anonymous": false,
      "inputs": [
        {
          "indexed": true,
          "internalType": "address",
          "name": "from",
          "type": "address"
        },
        {
          "indexed": true,
          "internalType": "address",
          "name": "to",
          "type": "address"
        },
        {
          "indexed": true,
          "internalType": "uint256",
          "name": "tokenId",
          "type": "uint256"
        }
      ],
      "name": "Transfer",
      "type": "event"
    },
    {
      "inputs": [
        {
          "internalType": "address",
          "name": "relayer",
          "type": "address"
        }
      ],
      "name": "addRelayer",
      "outputs": [],
      "stateMutability": "nonpayable",
      "type": "function"
    },
    {
      "inputs": [
        {
          "internalType": "address",
          "name": "to",
          "type": "address"
        },
        {
          "internalType": "uint256",
          "name": "tokenId",
          "type": "uint256"
        }
      ],
      "name": "approve",
      "outputs": [],
      "stateMutability": "nonpayable",
      "type": "function"
    },
    {
      "inputs": [
        {
          "internalType": "address",
          "name": "",
          "type": "address"
        }
      ],
      "name": "approvedRelayers",
      "outputs": [
        {
          "internalType": "bool",
          "name": "",
          "type": "bool"
        }
      ],
      "stateMutability": "view",
      "type": "function"
    },
    {
      "inputs": [
        {
          "internalType": "address",
          "name": "owner",
          "type": "address"
        }
      ],
      "name": "balanceOf",
      "outputs": [
        {
          "internalType": "uint256",
          "name": "",
          "type": "uint256"
        }
      ],
      "stateMutability": "view",
      "type": "function"
    },
    {
      "inputs": [
        {
          "internalType": "uint256",
          "name": "tokenId",
          "type": "uint256"
        }
      ],
      "name": "getApproved",
      "outputs": [
        {
          "internalType": "address",
          "name": "",
          "type": "address"
        }
      ],
      "stateMutability": "view",
      "type": "function"
    },
    {
      "inputs": [
        {
          "internalType": "address",
          "name": "owner",
          "type": "address"
        },
        {
          "internalType": "address",
          "name": "operator",
          "type": "address"
        }
      ],
      "name": "isApprovedForAll",
      "outputs": [
        {
          "internalType": "bool",
          "name": "",
          "type": "bool"
        }
      ],
      "stateMutability": "view",
      "type": "function"
    },
    {
      "inputs": [
        {
          "internalType": "uint256",
          "name": "",
          "type": "uint256"
        }
      ],
      "name": "items",
      "outputs": [
        {
          "internalType": "string",
          "name": "serialNumber",
          "type": "string"
        },
        {
          "internalType": "enum AssetGuard.Status",
          "name": "status",
          "type": "uint8"
        },
        {
          "internalType": "uint256",
          "name": "reportDate",
          "type": "uint256"
        },
        {
          "internalType": "bool",
          "name": "isMinted",
          "type": "bool"
        }
      ],
      "stateMutability": "view",
      "type": "function"
    },
    {
      "inputs": [
        {
          "internalType": "address",
          "name": "to",
          "type": "address"
        },
        {
          "internalType": "string",
          "name": "serial",
          "type": "string"
        },
        {
          "internalType": "string",
          "name": "uri",
          "type": "string"
        }
      ],
      "name": "manufacturerMint",
      "outputs": [],
      "stateMutability": "nonpayable",
      "type": "function"
    },
    {
      "inputs": [],
      "name": "name",
      "outputs": [
        {
          "internalType": "string",
          "name": "",
          "type": "string"
        }
      ],
      "stateMutability": "view",
      "type": "function"
    },
    {
      "inputs": [],
      "name": "owner",
      "outputs": [
        {
          "internalType": "address",
          "name": "",
          "type": "address"
        }
      ],
      "stateMutability": "view",
      "type": "function"
    },
    {
      "inputs": [
        {
          "internalType": "uint256",
          "name": "tokenId",
          "type": "uint256"
        }
      ],
      "name": "ownerOf",
      "outputs": [
        {
          "internalType": "address",
          "name": "",
          "type": "address"
        }
      ],
      "stateMutability": "view",
      "type": "function"
    },
    {
      "inputs": [],
      "name": "renounceOwnership",
      "outputs": [],
      "stateMutability": "nonpayable",
      "type": "function"
    },
    {
      "inputs": [
        {
          "internalType": "uint256",
          "name": "tokenId",
          "type": "uint256"
        }
      ],
      "name": "reportLost",
      "outputs": [],
      "stateMutability": "nonpayable",
      "type": "function"
    },
    {
      "inputs": [
        {
          "internalType": "uint256",
          "name": "tokenId",
          "type": "uint256"
        }
      ],
      "name": "reportRecovered",
      "outputs": [],
      "stateMutability": "nonpayable",
      "type": "function"
    },
    {
      "inputs": [
        {
          "internalType": "uint256",
          "name": "tokenId",
          "type": "uint256"
        }
      ],
      "name": "reportStolen",
      "outputs": [],
      "stateMutability": "nonpayable",
      "type": "function"
    },
    {
      "inputs": [
        {
          "internalType": "address",
          "name": "from",
          "type": "address"
        },
        {
          "internalType": "address",
          "name": "to",
          "type": "address"
        },
        {
          "internalType": "uint256",
          "name": "tokenId",
          "type": "uint256"
        }
      ],
      "name": "safeTransferFrom",
      "outputs": [],
      "stateMutability": "nonpayable",
      "type": "function"
    },
    {
      "inputs": [
        {
          "internalType": "address",
          "name": "from",
          "type": "address"
        },
        {
          "internalType": "address",
          "name": "to",
          "type": "address"
        },
        {
          "internalType": "uint256",
          "name": "tokenId",
          "type": "uint256"
        },
        {
          "internalType": "bytes",
          "name": "data",
          "type": "bytes"
        }
      ],
      "name": "safeTransferFrom",
      "outputs": [],
      "stateMutability": "nonpayable",
      "type": "function"
    },
    {
      "inputs": [
        {
          "internalType": "string",
          "name": "",
          "type": "string"
        }
      ],
      "name": "serialExists",
      "outputs": [
        {
          "internalType": "bool",
          "name": "",
          "type": "bool"
        }
      ],
      "stateMutability": "view",
      "type": "function"
    },
    {
      "inputs": [
        {
          "internalType": "string",
          "name": "",
          "type": "string"
        }
      ],
      "name": "serialToTokenId",
      "outputs": [
        {
          "internalType": "uint256",
          "name": "",
          "type": "uint256"
        }
      ],
      "stateMutability": "view",
      "type": "function"
    },
    {
      "inputs": [
        {
          "internalType": "address",
          "name": "operator",
          "type": "address"
        },
        {
          "internalType": "bool",
          "name": "approved",
          "type": "bool"
        }
      ],
      "name": "setApprovalForAll",
      "outputs": [],
      "stateMutability": "nonpayable",
      "type": "function"
    },
    {
      "inputs": [
        {
          "internalType": "bytes4",
          "name": "interfaceId",
          "type": "bytes4"
        }
      ],
      "name": "supportsInterface",
      "outputs": [
        {
          "internalType": "bool",
          "name": "",
          "type": "bool"
        }
      ],
      "stateMutability": "view",
      "type": "function"
    },
    {
      "inputs": [],
      "name": "symbol",
      "outputs": [
        {
          "internalType": "string",
          "name": "",
          "type": "string"
        }
      ],
      "stateMutability": "view",
      "type": "function"
    },
    {
      "inputs": [
        {
          "internalType": "uint256",
          "name": "tokenId",
          "type": "uint256"
        }
      ],
      "name": "tokenURI",
      "outputs": [
        {
          "internalType": "string",
          "name": "",
          "type": "string"
        }
      ],
      "stateMutability": "view",
      "type": "function"
    },
    {
      "inputs": [
        {
          "internalType": "address",
          "name": "to",
          "type": "address"
        },
        {
          "internalType": "uint256",
          "name": "tokenId",
          "type": "uint256"
        }
      ],
      "name": "transferAsset",
      "outputs": [],
      "stateMutability": "nonpayable",
      "type": "function"
    },
    {
      "inputs": [
        {
          "internalType": "address",
          "name": "from",
          "type": "address"
        },
        {
          "internalType": "address",
          "name": "to",
          "type": "address"
        },
        {
          "internalType": "uint256",
          "name": "tokenId",
          "type": "uint256"
        }
      ],
      "name": "transferFrom",
      "outputs": [],
      "stateMutability": "nonpayable",
      "type": "function"
    },
    {
      "inputs": [
        {
          "internalType": "address",
          "name": "newOwner",
          "type": "address"
        }
      ],
      "name": "transferOwnership",
      "outputs": [],
      "stateMutability": "nonpayable",
      "type": "function"
    }
  ],
  "bytecode": "0x60806040523480156200001157600080fd5b50336040518060400160405280600a81526020017f41737365744775617264000000000000000000000000000000000000000000008152506040518060400160405280600381526020017f4147440000000000000000000000000000000000000000000000000000000000815250816000908162000090919062000472565b508060019081620000a2919062000472565b505050600073ffffffffffffffffffffffffffffffffffffffff168173ffffffffffffffffffffffffffffffffffffffff16036200011a5760006040517f1e4fbdf70000000000000000000000000000000000000000000000000000000081526004016200011191906200059e565b60405180910390fd5b6200012b816200013260201b60201c565b50620005bb565b6000600760009054906101000a900473ffffffffffffffffffffffffffffffffffffffff16905081600760006101000a81548173ffffffffffffffffffffffffffffffffffffffff021916908373ffffffffffffffffffffffffffffffffffffffff1602179055508173ffffffffffffffffffffffffffffffffffffffff168173ffffffffffffffffffffffffffffffffffffffff167f8be0079c531659141344cd1fd0a4f28419497f9722a3daafe3b4186f6b6457e060405160405180910390a35050565b600081519050919050565b7f4e487b7100000000000000000000000000000000000000000000000000000000600052604160045260246000fd5b7f4e487b7100000000000000000000000000000000000000000000000000000000600052602260045260246000fd5b600060028204905060018216806200027a57607f821691505b60208210810362000290576200028f62000232565b5b50919050565b60008190508160005260206000209050919050565b60006020601f8301049050919050565b600082821b905092915050565b600060088302620002fa7fffffffffffffffffffffffffffffffffffffffffffffffffffffffffffffffff82620002bb565b620003068683620002bb565b95508019841693508086168417925050509392505050565b6000819050919050565b6000819050919050565b6000620003536200034d62000347846200031e565b62000328565b6200031e565b9050919050565b6000819050919050565b6200036f8362000332565b620003876200037e826200035a565b848454620002c8565b825550505050565b600090565b6200039e6200038f565b620003ab81848462000364565b505050565b5b81811015620003d357620003c760008262000394565b600181019050620003b1565b5050565b601f8211156200042257620003ec8162000296565b620003f784620002ab565b8101602085101562000407578190505b6200041f6200041685620002ab565b830182620003b0565b50505b505050565b600082821c905092915050565b6000620004476000198460080262000427565b1980831691505092915050565b600062000462838362000434565b9150826002028217905092915050565b6200047d82620001f8565b67ffffffffffffffff81111562000499576200049862000203565b5b620004a5825462000261565b620004b2828285620003d7565b600060209050601f831160018114620004ea5760008415620004d5578287015190505b620004e1858262000454565b86555062000551565b601f198416620004fa8662000296565b60005b828110156200052457848901518255600182019150602085019450602081019050620004fd565b8683101562000544578489015162000540601f89168262000434565b8355505b6001600288020188555050505b505050505050565b600073ffffffffffffffffffffffffffffffffffffffff82169050919050565b6000620005868262000559565b9050919050565b620005988162000579565b82525050565b6000602082019050620005b560008301846200058d565b92915050565b613d7280620005cb6000396000f3fe608060405234801561001057600080fd5b506004361061018e5760003560e01c8063715018a6116100de578063b88d4fde11610097578063c87b56dd11610071578063c87b56dd14610492578063dd39f00d146104c2578063e985e9c5146104de578063f2fde38b1461050e5761018e565b8063b88d4fde14610427578063bfb231d214610443578063c7719511146104765761018e565b8063715018a6146103655780638cba8b6a1461036f5780638da5cb5b1461039f5780638ea090af146103bd57806395d89b41146103ed578063a22cb4651461040b5761018e565b806323b872dd1161014b578063591636351161012557806359163635146102b95780635c921eb9146102e95780636352211e1461030557806370a08231146103355761018e565b806323b872dd14610265578063389a032a1461028157806342842e0e1461029d5761018e565b806301ffc9a71461019357806302ea1441146101c357806306fdde03146101df578063081812fc146101fd578063095ea7b31461022d5780631b41aab314610249575b600080fd5b6101ad60048036038101906101a89190612bd3565b61052a565b6040516101ba9190612c1b565b60405180910390f35b6101dd60048036038101906101d89190612c6c565b61053c565b005b6101e76107c7565b6040516101f49190612d29565b60405180910390f35b61021760048036038101906102129190612c6c565b610859565b6040516102249190612d8c565b60405180910390f35b61024760048036038101906102429190612dd3565b610875565b005b610263600480360381019061025e9190612f48565b61088b565b005b61027f600480360381019061027a9190612fd3565b610b0d565b005b61029b60048036038101906102969190612c6c565b610c0f565b005b6102b760048036038101906102b29190612fd3565b610dd9565b005b6102d360048036038101906102ce9190613026565b610df9565b6040516102e0919061307e565b60405180910390f35b61030360048036038101906102fe9190612dd3565b610e27565b005b61031f600480360381019061031a9190612c6c565b611051565b60405161032c9190612d8c565b60405180910390f35b61034f600480360381019061034a9190613099565b611063565b60405161035c919061307e565b60405180910390f35b61036d61111d565b005b61038960048036038101906103849190613099565b611131565b6040516103969190612c1b565b60405180910390f35b6103a7611151565b6040516103b49190612d8c565b60405180910390f35b6103d760048036038101906103d29190613026565b61117b565b6040516103e49190612c1b565b60405180910390f35b6103f56111b1565b6040516104029190612d29565b60405180910390f35b610425600480360381019061042091906130f2565b611243565b005b610441600480360381019061043c91906131d3565b611259565b005b61045d60048036038101906104589190612c6c565b61127e565b60405161046d94939291906132cd565b60405180910390f35b610490600480360381019061048b9190612c6c565b611350565b005b6104ac60048036038101906104a79190612c6c565b61151a565b6040516104b99190612d29565b60405180910390f35b6104dc60048036038101906104d79190613099565b61152c565b005b6104f860048036038101906104f39190613319565b61158f565b6040516105059190612c1b565b60405180910390f35b61052860048036038101906105239190613099565b611623565b005b6000610535826116a9565b9050919050565b600115156009600083815260200190815260200160002060030160009054906101000a900460ff161515146105a6576040517f08c379a000000000000000000000000000000000000000000000000000000000815260040161059d906133cb565b60405180910390fd5b6105af81611051565b73ffffffffffffffffffffffffffffffffffffffff163373ffffffffffffffffffffffffffffffffffffffff1614806106315750600c60003373ffffffffffffffffffffffffffffffffffffffff1673ffffffffffffffffffffffffffffffffffffffff16815260200190815260200160002060009054906101000a900460ff165b610670576040517f08c379a000000000000000000000000000000000000000000000000000000000815260040161066790613437565b60405180910390fd5b6002600381111561068457610683613256565b5b6009600083815260200190815260200160002060010160009054906101000a900460ff1660038111156106ba576106b9613256565b5b148061070d5750600160038111156106d5576106d4613256565b5b6009600083815260200190815260200160002060010160009054906101000a900460ff16600381111561070b5761070a613256565b5b145b61074c576040517f08c379a0000000000000000000000000000000000000000000000000000000008152600401610743906134a3565b60405180910390fd5b60036009600083815260200190815260200160002060010160006101000a81548160ff0219169083600381111561078657610785613256565b5b0217905550807f8a72e066c04aefe8f8a48306449441156991f023f739df3987292ed4f997416860036040516107bc91906134c3565b60405180910390a250565b6060600080546107d69061350d565b80601f01602080910402602001604051908101604052809291908181526020018280546108029061350d565b801561084f5780601f106108245761010080835404028352916020019161084f565b820191906000526020600020905b81548152906001019060200180831161083257829003601f168201915b5050505050905090565b60006108648261170a565b5061086e82611792565b9050919050565b61088782826108826117cf565b6117d7565b5050565b610893611151565b73ffffffffffffffffffffffffffffffffffffffff163373ffffffffffffffffffffffffffffffffffffffff1614806109155750600c60003373ffffffffffffffffffffffffffffffffffffffff1673ffffffffffffffffffffffffffffffffffffffff16815260200190815260200160002060009054906101000a900460ff165b610954576040517f08c379a000000000000000000000000000000000000000000000000000000000815260040161094b9061358a565b60405180910390fd5b600b8260405161096491906135e6565b908152602001604051809103902060009054906101000a900460ff16156109c0576040517f08c379a00000000000000000000000000000000000000000000000000000000081526004016109b79061366f565b60405180910390fd5b6000600860008154809291906109d5906136be565b9190505590506109e584826117e9565b6109ef8183611807565b604051806080016040528084815260200160006003811115610a1457610a13613256565b5b81526020016000815260200160011515815250600960008381526020019081526020016000206000820151816000019081610a4f91906138b2565b5060208201518160010160006101000a81548160ff02191690836003811115610a7b57610a7a613256565b5b02179055506040820151816002015560608201518160030160006101000a81548160ff02191690831515021790555090505080600a84604051610abe91906135e6565b9081526020016040518091039020819055506001600b84604051610ae291906135e6565b908152602001604051809103902060006101000a81548160ff02191690831515021790555050505050565b600073ffffffffffffffffffffffffffffffffffffffff168273ffffffffffffffffffffffffffffffffffffffff1603610b7f5760006040517f64a0ae92000000000000000000000000000000000000000000000000000000008152600401610b769190612d8c565b60405180910390fd5b6000610b938383610b8e6117cf565b611863565b90508373ffffffffffffffffffffffffffffffffffffffff168173ffffffffffffffffffffffffffffffffffffffff1614610c09578382826040517f64283d7b000000000000000000000000000000000000000000000000000000008152600401610c0093929190613984565b60405180910390fd5b50505050565b600115156009600083815260200190815260200160002060030160009054906101000a900460ff16151514610c79576040517f08c379a0000000000000000000000000000000000000000000000000000000008152600401610c70906133cb565b60405180910390fd5b610c8281611051565b73ffffffffffffffffffffffffffffffffffffffff163373ffffffffffffffffffffffffffffffffffffffff161480610d045750600c60003373ffffffffffffffffffffffffffffffffffffffff1673ffffffffffffffffffffffffffffffffffffffff16815260200190815260200160002060009054906101000a900460ff165b610d43576040517f08c379a0000000000000000000000000000000000000000000000000000000008152600401610d3a90613437565b60405180910390fd5b60026009600083815260200190815260200160002060010160006101000a81548160ff02191690836003811115610d7d57610d7c613256565b5b0217905550426009600083815260200190815260200160002060020181905550807f8a72e066c04aefe8f8a48306449441156991f023f739df3987292ed4f99741686002604051610dce91906134c3565b60405180910390a250565b610df483838360405180602001604052806000815250611259565b505050565b600a818051602081018201805184825260208301602085012081835280955050505050506000915090505481565b600115156009600083815260200190815260200160002060030160009054906101000a900460ff16151514610e91576040517f08c379a0000000000000000000000000000000000000000000000000000000008152600401610e8890613a07565b60405180910390fd5b60026003811115610ea557610ea4613256565b5b6009600083815260200190815260200160002060010160009054906101000a900460ff166003811115610edb57610eda613256565b5b14158015610f31575060016003811115610ef857610ef7613256565b5b6009600083815260200190815260200160002060010160009054906101000a900460ff166003811115610f2e57610f2d613256565b5b14155b610f70576040517f08c379a0000000000000000000000000000000000000000000000000000000008152600401610f6790613a99565b60405180910390fd5b610f7981611051565b73ffffffffffffffffffffffffffffffffffffffff163373ffffffffffffffffffffffffffffffffffffffff161480610ffb5750600c60003373ffffffffffffffffffffffffffffffffffffffff1673ffffffffffffffffffffffffffffffffffffffff16815260200190815260200160002060009054906101000a900460ff165b61103a576040517f08c379a00000000000000000000000000000000000000000000000000000000081526004016110319061358a565b60405180910390fd5b61104d61104682611051565b83836119cf565b5050565b600061105c8261170a565b9050919050565b60008073ffffffffffffffffffffffffffffffffffffffff168273ffffffffffffffffffffffffffffffffffffffff16036110d65760006040517f89c62b640000000000000000000000000000000000000000000000000000000081526004016110cd9190612d8c565b60405180910390fd5b600360008373ffffffffffffffffffffffffffffffffffffffff1673ffffffffffffffffffffffffffffffffffffffff168152602001908152602001600020549050919050565b611125611b3c565b61112f6000611bc3565b565b600c6020528060005260406000206000915054906101000a900460ff1681565b6000600760009054906101000a900473ffffffffffffffffffffffffffffffffffffffff16905090565b600b818051602081018201805184825260208301602085012081835280955050505050506000915054906101000a900460ff1681565b6060600180546111c09061350d565b80601f01602080910402602001604051908101604052809291908181526020018280546111ec9061350d565b80156112395780601f1061120e57610100808354040283529160200191611239565b820191906000526020600020905b81548152906001019060200180831161121c57829003601f168201915b5050505050905090565b61125561124e6117cf565b8383611c89565b5050565b611264848484610b0d565b61127861126f6117cf565b85858585611df8565b50505050565b60096020528060005260406000206000915090508060000180546112a19061350d565b80601f01602080910402602001604051908101604052809291908181526020018280546112cd9061350d565b801561131a5780601f106112ef5761010080835404028352916020019161131a565b820191906000526020600020905b8154815290600101906020018083116112fd57829003601f168201915b5050505050908060010160009054906101000a900460ff16908060020154908060030160009054906101000a900460ff16905084565b600115156009600083815260200190815260200160002060030160009054906101000a900460ff161515146113ba576040517f08c379a00000000000000000000000000000000000000000000000000000000081526004016113b1906133cb565b60405180910390fd5b6113c381611051565b73ffffffffffffffffffffffffffffffffffffffff163373ffffffffffffffffffffffffffffffffffffffff1614806114455750600c60003373ffffffffffffffffffffffffffffffffffffffff1673ffffffffffffffffffffffffffffffffffffffff16815260200190815260200160002060009054906101000a900460ff165b611484576040517f08c379a000000000000000000000000000000000000000000000000000000000815260040161147b90613437565b60405180910390fd5b60016009600083815260200190815260200160002060010160006101000a81548160ff021916908360038111156114be576114bd613256565b5b0217905550426009600083815260200190815260200160002060020181905550807f8a72e066c04aefe8f8a48306449441156991f023f739df3987292ed4f9974168600160405161150f91906134c3565b60405180910390a250565b606061152582611fa9565b9050919050565b611534611b3c565b6001600c60008373ffffffffffffffffffffffffffffffffffffffff1673ffffffffffffffffffffffffffffffffffffffff16815260200190815260200160002060006101000a81548160ff02191690831515021790555050565b6000600560008473ffffffffffffffffffffffffffffffffffffffff1673ffffffffffffffffffffffffffffffffffffffff16815260200190815260200160002060008373ffffffffffffffffffffffffffffffffffffffff1673ffffffffffffffffffffffffffffffffffffffff16815260200190815260200160002060009054906101000a900460ff16905092915050565b61162b611b3c565b600073ffffffffffffffffffffffffffffffffffffffff168173ffffffffffffffffffffffffffffffffffffffff160361169d5760006040517f1e4fbdf70000000000000000000000000000000000000000000000000000000081526004016116949190612d8c565b60405180910390fd5b6116a681611bc3565b50565b6000634906490660e01b7bffffffffffffffffffffffffffffffffffffffffffffffffffffffff1916827bffffffffffffffffffffffffffffffffffffffffffffffffffffffff191614806117035750611702826120bc565b5b9050919050565b6000806117168361219e565b9050600073ffffffffffffffffffffffffffffffffffffffff168173ffffffffffffffffffffffffffffffffffffffff160361178957826040517f7e273289000000000000000000000000000000000000000000000000000000008152600401611780919061307e565b60405180910390fd5b80915050919050565b60006004600083815260200190815260200160002060009054906101000a900473ffffffffffffffffffffffffffffffffffffffff169050919050565b600033905090565b6117e483838360016121db565b505050565b6118038282604051806020016040528060008152506123a0565b5050565b8060066000848152602001908152602001600020908161182791906138b2565b507ff8e1a15aba9398e019f0b49df1a4fde98ee17ae345cb5f6b5e2c27f5033e8ce782604051611857919061307e565b60405180910390a15050565b60008061186f8461219e565b9050600073ffffffffffffffffffffffffffffffffffffffff168173ffffffffffffffffffffffffffffffffffffffff16146119ba57600260038111156118b9576118b8613256565b5b6009600086815260200190815260200160002060010160009054906101000a900460ff1660038111156118ef576118ee613256565b5b0361192f576040517f08c379a000000000000000000000000000000000000000000000000000000000815260040161192690613b2b565b60405180910390fd5b6001600381111561194357611942613256565b5b6009600086815260200190815260200160002060010160009054906101000a900460ff16600381111561197957611978613256565b5b036119b9576040517f08c379a00000000000000000000000000000000000000000000000000000000081526004016119b090613bbd565b60405180910390fd5b5b6119c58585856123c4565b9150509392505050565b600073ffffffffffffffffffffffffffffffffffffffff168273ffffffffffffffffffffffffffffffffffffffff1603611a415760006040517f64a0ae92000000000000000000000000000000000000000000000000000000008152600401611a389190612d8c565b60405180910390fd5b6000611a4f83836000611863565b9050600073ffffffffffffffffffffffffffffffffffffffff168173ffffffffffffffffffffffffffffffffffffffff1603611ac257816040517f7e273289000000000000000000000000000000000000000000000000000000008152600401611ab9919061307e565b60405180910390fd5b8373ffffffffffffffffffffffffffffffffffffffff168173ffffffffffffffffffffffffffffffffffffffff1614611b36578382826040517f64283d7b000000000000000000000000000000000000000000000000000000008152600401611b2d93929190613984565b60405180910390fd5b50505050565b611b446117cf565b73ffffffffffffffffffffffffffffffffffffffff16611b62611151565b73ffffffffffffffffffffffffffffffffffffffff1614611bc157611b856117cf565b6040517f118cdaa7000000000000000000000000000000000000000000000000000000008152600401611bb89190612d8c565b60405180910390fd5b565b6000600760009054906101000a900473ffffffffffffffffffffffffffffffffffffffff16905081600760006101000a81548173ffffffffffffffffffffffffffffffffffffffff021916908373ffffffffffffffffffffffffffffffffffffffff1602179055508173ffffffffffffffffffffffffffffffffffffffff168173ffffffffffffffffffffffffffffffffffffffff167f8be0079c531659141344cd1fd0a4f28419497f9722a3daafe3b4186f6b6457e060405160405180910390a35050565b600073ffffffffffffffffffffffffffffffffffffffff168273ffffffffffffffffffffffffffffffffffffffff1603611cfa57816040517f5b08ba18000000000000000000000000000000000000000000000000000000008152600401611cf19190612d8c565b60405180910390fd5b80600560008573ffffffffffffffffffffffffffffffffffffffff1673ffffffffffffffffffffffffffffffffffffffff16815260200190815260200160002060008473ffffffffffffffffffffffffffffffffffffffff1673ffffffffffffffffffffffffffffffffffffffff16815260200190815260200160002060006101000a81548160ff0219169083151502179055508173ffffffffffffffffffffffffffffffffffffffff168373ffffffffffffffffffffffffffffffffffffffff167f17307eab39ab6107e8899845ad3d59bd9653f200f220920489ca2b5937696c3183604051611deb9190612c1b565b60405180910390a3505050565b60008373ffffffffffffffffffffffffffffffffffffffff163b1115611fa2578273ffffffffffffffffffffffffffffffffffffffff1663150b7a02868685856040518563ffffffff1660e01b8152600401611e579493929190613c32565b6020604051808303816000875af1925050508015611e9357506040513d601f19601f82011682018060405250810190611e909190613c93565b60015b611f17573d8060008114611ec3576040519150601f19603f3d011682016040523d82523d6000602084013e611ec8565b606091505b506000815103611f0f57836040517f64a0ae92000000000000000000000000000000000000000000000000000000008152600401611f069190612d8c565b60405180910390fd5b805160208201fd5b63150b7a0260e01b7bffffffffffffffffffffffffffffffffffffffffffffffffffffffff1916817bffffffffffffffffffffffffffffffffffffffffffffffffffffffff191614611fa057836040517f64a0ae92000000000000000000000000000000000000000000000000000000008152600401611f979190612d8c565b60405180910390fd5b505b5050505050565b6060611fb48261170a565b506000600660008481526020019081526020016000208054611fd59061350d565b80601f01602080910402602001604051908101604052809291908181526020018280546120019061350d565b801561204e5780601f106120235761010080835404028352916020019161204e565b820191906000526020600020905b81548152906001019060200180831161203157829003601f168201915b50505050509050600061205f6125de565b905060008151036120745781925050506120b7565b6000825111156120a9578082604051602001612091929190613cc0565b604051602081830303815290604052925050506120b7565b6120b2846125f5565b925050505b919050565b60007f80ac58cd000000000000000000000000000000000000000000000000000000007bffffffffffffffffffffffffffffffffffffffffffffffffffffffff1916827bffffffffffffffffffffffffffffffffffffffffffffffffffffffff1916148061218757507f5b5e139f000000000000000000000000000000000000000000000000000000007bffffffffffffffffffffffffffffffffffffffffffffffffffffffff1916827bffffffffffffffffffffffffffffffffffffffffffffffffffffffff1916145b8061219757506121968261265e565b5b9050919050565b60006002600083815260200190815260200160002060009054906101000a900473ffffffffffffffffffffffffffffffffffffffff169050919050565b80806122145750600073ffffffffffffffffffffffffffffffffffffffff168273ffffffffffffffffffffffffffffffffffffffff1614155b156123485760006122248461170a565b9050600073ffffffffffffffffffffffffffffffffffffffff168373ffffffffffffffffffffffffffffffffffffffff161415801561228f57508273ffffffffffffffffffffffffffffffffffffffff168173ffffffffffffffffffffffffffffffffffffffff1614155b80156122a257506122a0818461158f565b155b156122e457826040517fa9fbf51f0000000000000000000000000000000000000000000000000000000081526004016122db9190612d8c565b60405180910390fd5b811561234657838573ffffffffffffffffffffffffffffffffffffffff168273ffffffffffffffffffffffffffffffffffffffff167f8c5be1e5ebec7d5bd14f71427d1e84f3dd0314c0f7b2291e5b200ac8c7c3b92560405160405180910390a45b505b836004600085815260200190815260200160002060006101000a81548173ffffffffffffffffffffffffffffffffffffffff021916908373ffffffffffffffffffffffffffffffffffffffff16021790555050505050565b6123aa83836126c8565b6123bf6123b56117cf565b6000858585611df8565b505050565b6000806123d08461219e565b9050600073ffffffffffffffffffffffffffffffffffffffff168373ffffffffffffffffffffffffffffffffffffffff1614612412576124118184866127c1565b5b600073ffffffffffffffffffffffffffffffffffffffff168173ffffffffffffffffffffffffffffffffffffffff16146124a3576124546000856000806121db565b6001600360008373ffffffffffffffffffffffffffffffffffffffff1673ffffffffffffffffffffffffffffffffffffffff168152602001908152602001600020600082825403925050819055505b600073ffffffffffffffffffffffffffffffffffffffff168573ffffffffffffffffffffffffffffffffffffffff1614612526576001600360008773ffffffffffffffffffffffffffffffffffffffff1673ffffffffffffffffffffffffffffffffffffffff168152602001908152602001600020600082825401925050819055505b846002600086815260200190815260200160002060006101000a81548173ffffffffffffffffffffffffffffffffffffffff021916908373ffffffffffffffffffffffffffffffffffffffff160217905550838573ffffffffffffffffffffffffffffffffffffffff168273ffffffffffffffffffffffffffffffffffffffff167fddf252ad1be2c89b69c2b068fc378daa952ba7f163c4a11628f55a4df523b3ef60405160405180910390a4809150509392505050565b606060405180602001604052806000815250905090565b60606126008261170a565b50600061260b6125de565b9050600081511161262b5760405180602001604052806000815250612656565b8061263584612885565b604051602001612646929190613cc0565b6040516020818303038152906040525b915050919050565b60007f01ffc9a7000000000000000000000000000000000000000000000000000000007bffffffffffffffffffffffffffffffffffffffffffffffffffffffff1916827bffffffffffffffffffffffffffffffffffffffffffffffffffffffff1916149050919050565b600073ffffffffffffffffffffffffffffffffffffffff168273ffffffffffffffffffffffffffffffffffffffff160361273a5760006040517f64a0ae920000000000000000000000000000000000000000000000000000000081526004016127319190612d8c565b60405180910390fd5b600061274883836000611863565b9050600073ffffffffffffffffffffffffffffffffffffffff168173ffffffffffffffffffffffffffffffffffffffff16146127bc5760006040517f73c6ac6e0000000000000000000000000000000000000000000000000000000081526004016127b39190612d8c565b60405180910390fd5b505050565b6127cc838383612953565b61288057600073ffffffffffffffffffffffffffffffffffffffff168373ffffffffffffffffffffffffffffffffffffffff160361284157806040517f7e273289000000000000000000000000000000000000000000000000000000008152600401612838919061307e565b60405180910390fd5b81816040517f177e802f000000000000000000000000000000000000000000000000000000008152600401612877929190613ce4565b60405180910390fd5b505050565b60606000600161289484612a14565b01905060008167ffffffffffffffff8111156128b3576128b2612e1d565b5b6040519080825280601f01601f1916602001820160405280156128e55781602001600182028036833780820191505090505b509050600082602083010190505b600115612948578080600190039150507f3031323334353637383961626364656600000000000000000000000000000000600a86061a8153600a858161293c5761293b613d0d565b5b049450600085036128f3575b819350505050919050565b60008073ffffffffffffffffffffffffffffffffffffffff168373ffffffffffffffffffffffffffffffffffffffff1614158015612a0b57508273ffffffffffffffffffffffffffffffffffffffff168473ffffffffffffffffffffffffffffffffffffffff1614806129cc57506129cb848461158f565b5b80612a0a57508273ffffffffffffffffffffffffffffffffffffffff166129f283611792565b73ffffffffffffffffffffffffffffffffffffffff16145b5b90509392505050565b600080600090507a184f03e93ff9f4daa797ed6e38ed64bf6a1f0100000000000000008310612a72577a184f03e93ff9f4daa797ed6e38ed64bf6a1f0100000000000000008381612a6857612a67613d0d565b5b0492506040810190505b6d04ee2d6d415b85acef81000000008310612aaf576d04ee2d6d415b85acef81000000008381612aa557612aa4613d0d565b5b0492506020810190505b662386f26fc100008310612ade57662386f26fc100008381612ad457612ad3613d0d565b5b0492506010810190505b6305f5e1008310612b07576305f5e1008381612afd57612afc613d0d565b5b0492506008810190505b6127108310612b2c576127108381612b2257612b21613d0d565b5b0492506004810190505b60648310612b4f5760648381612b4557612b44613d0d565b5b0492506002810190505b600a8310612b5e576001810190505b80915050919050565b6000604051905090565b600080fd5b600080fd5b60007fffffffff0000000000000000000000000000000000000000000000000000000082169050919050565b612bb081612b7b565b8114612bbb57600080fd5b50565b600081359050612bcd81612ba7565b92915050565b600060208284031215612be957612be8612b71565b5b6000612bf784828501612bbe565b91505092915050565b60008115159050919050565b612c1581612c00565b82525050565b6000602082019050612c306000830184612c0c565b92915050565b6000819050919050565b612c4981612c36565b8114612c5457600080fd5b50565b600081359050612c6681612c40565b92915050565b600060208284031215612c8257612c81612b71565b5b6000612c9084828501612c57565b91505092915050565b600081519050919050565b600082825260208201905092915050565b60005b83811015612cd3578082015181840152602081019050612cb8565b60008484015250505050565b6000601f19601f8301169050919050565b6000612cfb82612c99565b612d058185612ca4565b9350612d15818560208601612cb5565b612d1e81612cdf565b840191505092915050565b60006020820190508181036000830152612d438184612cf0565b905092915050565b600073ffffffffffffffffffffffffffffffffffffffff82169050919050565b6000612d7682612d4b565b9050919050565b612d8681612d6b565b82525050565b6000602082019050612da16000830184612d7d565b92915050565b612db081612d6b565b8114612dbb57600080fd5b50565b600081359050612dcd81612da7565b92915050565b60008060408385031215612dea57612de9612b71565b5b6000612df885828601612dbe565b9250506020612e0985828601612c57565b9150509250929050565b600080fd5b600080fd5b7f4e487b7100000000000000000000000000000000000000000000000000000000600052604160045260246000fd5b612e5582612cdf565b810181811067ffffffffffffffff82111715612e7457612e73612e1d565b5b80604052505050565b6000612e87612b67565b9050612e938282612e4c565b919050565b600067ffffffffffffffff821115612eb357612eb2612e1d565b5b612ebc82612cdf565b9050602081019050919050565b82818337600083830152505050565b6000612eeb612ee684612e98565b612e7d565b905082815260208101848484011115612f0757612f06612e18565b5b612f12848285612ec9565b509392505050565b600082601f830112612f2f57612f2e612e13565b5b8135612f3f848260208601612ed8565b91505092915050565b600080600060608486031215612f6157612f60612b71565b5b6000612f6f86828701612dbe565b935050602084013567ffffffffffffffff811115612f9057612f8f612b76565b5b612f9c86828701612f1a565b925050604084013567ffffffffffffffff811115612fbd57612fbc612b76565b5b612fc986828701612f1a565b9150509250925092565b600080600060608486031215612fec57612feb612b71565b5b6000612ffa86828701612dbe565b935050602061300b86828701612dbe565b925050604061301c86828701612c57565b9150509250925092565b60006020828403121561303c5761303b612b71565b5b600082013567ffffffffffffffff81111561305a57613059612b76565b5b61306684828501612f1a565b91505092915050565b61307881612c36565b82525050565b6000602082019050613093600083018461306f565b92915050565b6000602082840312156130af576130ae612b71565b5b60006130bd84828501612dbe565b91505092915050565b6130cf81612c00565b81146130da57600080fd5b50565b6000813590506130ec816130c6565b92915050565b6000806040838503121561310957613108612b71565b5b600061311785828601612dbe565b9250506020613128858286016130dd565b9150509250929050565b600067ffffffffffffffff82111561314d5761314c612e1d565b5b61315682612cdf565b9050602081019050919050565b600061317661317184613132565b612e7d565b90508281526020810184848401111561319257613191612e18565b5b61319d848285612ec9565b509392505050565b600082601f8301126131ba576131b9612e13565b5b81356131ca848260208601613163565b91505092915050565b600080600080608085870312156131ed576131ec612b71565b5b60006131fb87828801612dbe565b945050602061320c87828801612dbe565b935050604061321d87828801612c57565b925050606085013567ffffffffffffffff81111561323e5761323d612b76565b5b61324a878288016131a5565b91505092959194509250565b7f4e487b7100000000000000000000000000000000000000000000000000000000600052602160045260246000fd5b6004811061329657613295613256565b5b50565b60008190506132a782613285565b919050565b60006132b782613299565b9050919050565b6132c7816132ac565b82525050565b600060808201905081810360008301526132e78187612cf0565b90506132f660208301866132be565b613303604083018561306f565b6133106060830184612c0c565b95945050505050565b600080604083850312156133305761332f612b71565b5b600061333e85828601612dbe565b925050602061334f85828601612dbe565b9150509250929050565b7f435249544943414c3a20546869732064657669636520646f6573206e6f74206560008201527f78697374206f6e2074686520626c6f636b636861696e21000000000000000000602082015250565b60006133b5603783612ca4565b91506133c082613359565b604082019050919050565b600060208201905081810360008301526133e4816133a8565b9050919050565b7f4e6f7420617574686f72697a6564210000000000000000000000000000000000600082015250565b6000613421600f83612ca4565b915061342c826133eb565b602082019050919050565b6000602082019050818103600083015261345081613414565b9050919050565b7f446576696365206973206e6f742063757272656e746c79206d697373696e672e600082015250565b600061348d602083612ca4565b915061349882613457565b602082019050919050565b600060208201905081810360008301526134bc81613480565b9050919050565b60006020820190506134d860008301846132be565b92915050565b7f4e487b7100000000000000000000000000000000000000000000000000000000600052602260045260246000fd5b6000600282049050600182168061352557607f821691505b602082108103613538576135376134de565b5b50919050565b7f4e6f7420617574686f72697a6564000000000000000000000000000000000000600082015250565b6000613574600e83612ca4565b915061357f8261353e565b602082019050919050565b600060208201905081810360008301526135a381613567565b9050919050565b600081905092915050565b60006135c082612c99565b6135ca81856135aa565b93506135da818560208601612cb5565b80840191505092915050565b60006135f282846135b5565b915081905092915050565b7f4572726f723a2053657269616c20616c7265616479207265676973746572656460008201527f2100000000000000000000000000000000000000000000000000000000000000602082015250565b6000613659602183612ca4565b9150613664826135fd565b604082019050919050565b600060208201905081810360008301526136888161364c565b9050919050565b7f4e487b7100000000000000000000000000000000000000000000000000000000600052601160045260246000fd5b60006136c982612c36565b91507fffffffffffffffffffffffffffffffffffffffffffffffffffffffffffffffff82036136fb576136fa61368f565b5b600182019050919050565b60008190508160005260206000209050919050565b60006020601f8301049050919050565b600082821b905092915050565b6000600883026137687fffffffffffffffffffffffffffffffffffffffffffffffffffffffffffffffff8261372b565b613772868361372b565b95508019841693508086168417925050509392505050565b6000819050919050565b60006137af6137aa6137a584612c36565b61378a565b612c36565b9050919050565b6000819050919050565b6137c983613794565b6137dd6137d5826137b6565b848454613738565b825550505050565b600090565b6137f26137e5565b6137fd8184846137c0565b505050565b5b81811015613821576138166000826137ea565b600181019050613803565b5050565b601f8211156138665761383781613706565b6138408461371b565b8101602085101561384f578190505b61386361385b8561371b565b830182613802565b50505b505050565b600082821c905092915050565b60006138896000198460080261386b565b1980831691505092915050565b60006138a28383613878565b9150826002028217905092915050565b6138bb82612c99565b67ffffffffffffffff8111156138d4576138d3612e1d565b5b6138de825461350d565b6138e9828285613825565b600060209050601f83116001811461391c576000841561390a578287015190505b6139148582613896565b86555061397c565b601f19841661392a86613706565b60005b828110156139525784890151825560018201915060208501945060208101905061392d565b8683101561396f578489015161396b601f891682613878565b8355505b6001600288020188555050505b505050505050565b60006060820190506139996000830186612d7d565b6139a6602083018561306f565b6139b36040830184612d7d565b949350505050565b7f44657669636520646f6573206e6f742065786973740000000000000000000000600082015250565b60006139f1601583612ca4565b91506139fc826139bb565b602082019050919050565b60006020820190508181036000830152613a20816139e4565b9050919050565b7f435249544943414c3a2043616e6e6f74207472616e736665722061206c6f636b60008201527f6564206173736574210000000000000000000000000000000000000000000000602082015250565b6000613a83602983612ca4565b9150613a8e82613a27565b604082019050919050565b60006020820190508181036000830152613ab281613a76565b9050919050565b7f435249544943414c3a20417373657420697320666c61676765642053544f4c4560008201527f4e2e205472616e7366657220626c6f636b65642e000000000000000000000000602082015250565b6000613b15603483612ca4565b9150613b2082613ab9565b604082019050919050565b60006020820190508181036000830152613b4481613b08565b9050919050565b7f435249544943414c3a20417373657420697320666c6167676564204c4f53542e60008201527f205472616e7366657220626c6f636b65642e0000000000000000000000000000602082015250565b6000613ba7603283612ca4565b9150613bb282613b4b565b604082019050919050565b60006020820190508181036000830152613bd681613b9a565b9050919050565b600081519050919050565b600082825260208201905092915050565b6000613c0482613bdd565b613c0e8185613be8565b9350613c1e818560208601612cb5565b613c2781612cdf565b840191505092915050565b6000608082019050613c476000830187612d7d565b613c546020830186612d7d565b613c61604083018561306f565b8181036060830152613c738184613bf9565b905095945050505050565b600081519050613c8d81612ba7565b92915050565b600060208284031215613ca957613ca8612b71565b5b6000613cb784828501613c7e565b91505092915050565b6000613ccc82856135b5565b9150613cd882846135b5565b91508190509392505050565b6000604082019050613cf96000830185612d7d565b613d06602083018461306f565b9392505050565b7f4e487b7100000000000000000000000000000000000000000000000000000000600052601260045260246000fdfea2646970667358221220e0116afe470e152f6d316d07cd9df36735f375915da7e7835a4f6c37b6ef3dce64736f6c63430008140033",
  "linkReferences": {},
  "deployedLinkReferences": {}
}